{
  "abi": [
    {
      "anonymous": false,
      "inputs": [
        {
          "indexed": true,
          "internalType": "address",
          "name": "previousOwner",
          "type": "address"
        },
        {
          "indexed": true,
          "internalType": "address",
          "name": "newOwner",
          "type": "address"
        }
      ],
      "name": "OwnershipTransferred",
      "type": "event"
    },
    {
      "inputs": [],
      "name": "getSecretNumberAndPhrase",
      "outputs": [
        {
          "internalType": "string",
          "name": "_secretPhrase",
          "type": "string"
        },
        {
          "internalType": "uint256",
          "name": "_secretNumber",
          "type": "uint256"
        }
      ],
      "stateMutability": "view",
      "type": "function"
    },
    {
      "inputs": [],
      "name": "getSecretPhrase",
      "outputs": [
        {
          "internalType": "string",
          "name": "_secretPhrase",
          "type": "string"
        }
      ],
      "stateMutability": "view",
      "type": "function"
    },
    {
      "inputs": [],
      "name": "getTysNumber",
      "outputs": [
        {
          "internalType": "uint256",
          "name": "",
          "type": "uint256"
        }
      ],
      "stateMutability": "view",
      "type": "function"
    },
    {
      "inputs": [],
      "name": "owner",
      "outputs": [
        {
          "internalType": "address",
          "name": "",
          "type": "address"
        }
      ],
      "stateMutability": "view",
      "type": "function"
    },
    {
      "inputs": [],
      "name": "renounceOwnership",
      "outputs": [],
      "stateMutability": "nonpayable",
      "type": "function"
    },
    {
      "inputs": [],
      "name": "secretInStorage",
      "outputs": [
        {
          "internalType": "uint256",
          "name": "secretNumber",
          "type": "uint256"
        },
        {
          "internalType": "string",
          "name": "secretPrase",
          "type": "string"
        }
      ],
      "stateMutability": "view",
      "type": "function"
    },
    {
      "inputs": [],
      "name": "secretNumber",
      "outputs": [
        {
          "internalType": "uint256",
          "name": "",
          "type": "uint256"
        }
      ],
      "stateMutability": "view",
      "type": "function"
    },
    {
      "inputs": [
        {
          "internalType": "address",
          "name": "newOwner",
          "type": "address"
        }
      ],
      "name": "transferOwnership",
      "outputs": [],
      "stateMutability": "nonpayable",
      "type": "function"
    },
    {
      "inputs": [],
      "name": "tysSecretPhrase",
      "outputs": [
        {
          "internalType": "string",
          "name": "",
          "type": "string"
        }
      ],
      "stateMutability": "view",
      "type": "function"
    },
    {
      "inputs": [
        {
          "components": [
            {
              "internalType": "uint256",
              "name": "secretNumber",
              "type": "uint256"
            },
            {
              "internalType": "string",
              "name": "secretPrase",
              "type": "string"
            }
          ],
          "internalType": "struct SecretKeeper.SecretStorage",
          "name": "secretParam",
          "type": "tuple"
        }
      ],
      "name": "updateSecretInStorage",
      "outputs": [],
      "stateMutability": "nonpayable",
      "type": "function"
    },
    {
      "inputs": [
        {
          "internalType": "uint256",
          "name": "_secretNumber",
          "type": "uint256"
        }
      ],
      "name": "updateSecretNumber",
      "outputs": [],
      "stateMutability": "nonpayable",
      "type": "function"
    },
    {
      "inputs": [
        {
          "internalType": "string",
          "name": "_secretPhrase",
          "type": "string"
        }
      ],
      "name": "updateSecretPhraseForBIGHOMETYDOG",
      "outputs": [],
      "stateMutability": "nonpayable",
      "type": "function"
    }
  ],
  "bytecode": {
    "object": "0x60e0604052602360808181529062000b8f60a0396001906200002290826200018d565b506101a4600255604080518082018252611b3981528151808301909252600982526864656578206e75747360b81b60208381019190915281018290528051600390815590916004906200007690826200018d565b5050503480156200008657600080fd5b50620000923362000098565b62000259565b600080546001600160a01b038381166001600160a01b0319831681178455604051919092169283917f8be0079c531659141344cd1fd0a4f28419497f9722a3daafe3b4186f6b6457e09190a35050565b634e487b7160e01b600052604160045260246000fd5b600181811c908216806200011357607f821691505b6020821081036200013457634e487b7160e01b600052602260045260246000fd5b50919050565b601f8211156200018857600081815260208120601f850160051c81016020861015620001635750805b601f850160051c820191505b8181101562000184578281556001016200016f565b5050505b505050565b81516001600160401b03811115620001a957620001a9620000e8565b620001c181620001ba8454620000fe565b846200013a565b602080601f831160018114620001f95760008415620001e05750858301515b600019600386901b1c1916600185901b17855562000184565b600085815260208120601f198616915b828110156200022a5788860151825594840194600190910190840162000209565b5085821015620002495787850151600019600388901b60f8161c191681555b5050505050600190811b01905550565b61092680620002696000396000f3fe608060405234801561001057600080fd5b50600436106100b45760003560e01c8063c36604ed11610071578063c36604ed1461012a578063cec5631414610141578063ec9d1fce14610149578063f2fde38b1461015f578063f4f0d7ce14610172578063fdb0db831461018557600080fd5b8063043c8a95146100b9578063378963ac146100d75780633e7cc591146100ec5780635df6697a146100ff578063715018a6146101075780638da5cb5b1461010f575b600080fd5b6100c161019b565b6040516100ce91906105a3565b60405180910390f35b6100ea6100e53660046105bd565b600255565b005b6100ea6100fa366004610679565b610229565b6100c161024b565b6100ea6102dd565b6000546040516001600160a01b0390911681526020016100ce565b61013360025481565b6040519081526020016100ce565b600254610133565b6101516102f1565b6040516100ce929190610706565b6100ea61016d366004610728565b61038e565b6100ea610180366004610751565b61040c565b61018d61041c565b6040516100ce92919061078e565b600180546101a8906107a7565b80601f01602080910402602001604051908101604052809291908181526020018280546101d4906107a7565b80156102215780601f106101f657610100808354040283529160200191610221565b820191906000526020600020905b81548152906001019060200180831161020457829003601f168201915b505050505081565b8051600390815560208201518291906004906102459082610830565b50505050565b60606001805461025a906107a7565b80601f0160208091040260200160405190810160405280929190818152602001828054610286906107a7565b80156102d35780601f106102a8576101008083540402835291602001916102d3565b820191906000526020600020905b8154815290600101906020018083116102b657829003601f168201915b5050505050905090565b6102e56104b3565b6102ef600061050d565b565b606060006001600254818054610306906107a7565b80601f0160208091040260200160405190810160405280929190818152602001828054610332906107a7565b801561037f5780601f106103545761010080835404028352916020019161037f565b820191906000526020600020905b81548152906001019060200180831161036257829003601f168201915b50505050509150915091509091565b6103966104b3565b6001600160a01b0381166104005760405162461bcd60e51b815260206004820152602660248201527f4f776e61626c653a206e6577206f776e657220697320746865207a65726f206160448201526564647265737360d01b60648201526084015b60405180910390fd5b6104098161050d565b50565b60016104188282610830565b5050565b6003805460048054919291610430906107a7565b80601f016020809104026020016040519081016040528092919081815260200182805461045c906107a7565b80156104a95780601f1061047e576101008083540402835291602001916104a9565b820191906000526020600020905b81548152906001019060200180831161048c57829003601f168201915b5050505050905082565b6000546001600160a01b031633146102ef5760405162461bcd60e51b815260206004820181905260248201527f4f776e61626c653a2063616c6c6572206973206e6f7420746865206f776e657260448201526064016103f7565b600080546001600160a01b038381166001600160a01b0319831681178455604051919092169283917f8be0079c531659141344cd1fd0a4f28419497f9722a3daafe3b4186f6b6457e09190a35050565b6000815180845260005b8181101561058357602081850181015186830182015201610567565b506000602082860101526020601f19601f83011685010191505092915050565b6020815260006105b6602083018461055d565b9392505050565b6000602082840312156105cf57600080fd5b5035919050565b634e487b7160e01b600052604160045260246000fd5b600082601f8301126105fd57600080fd5b813567ffffffffffffffff80821115610618576106186105d6565b604051601f8301601f19908116603f01168101908282118183101715610640576106406105d6565b8160405283815286602085880101111561065957600080fd5b836020870160208301376000602085830101528094505050505092915050565b60006020828403121561068b57600080fd5b813567ffffffffffffffff808211156106a357600080fd5b90830190604082860312156106b757600080fd5b6040516040810181811083821117156106d2576106d26105d6565b604052823581526020830135828111156106eb57600080fd5b6106f7878286016105ec565b60208301525095945050505050565b604081526000610719604083018561055d565b90508260208301529392505050565b60006020828403121561073a57600080fd5b81356001600160a01b03811681146105b657600080fd5b60006020828403121561076357600080fd5b813567ffffffffffffffff81111561077a57600080fd5b610786848285016105ec565b949350505050565b828152604060208201526000610786604083018461055d565b600181811c908216806107bb57607f821691505b6020821081036107db57634e487b7160e01b600052602260045260246000fd5b50919050565b601f82111561082b57600081815260208120601f850160051c810160208610156108085750805b601f850160051c820191505b8181101561082757828155600101610814565b5050505b505050565b815167ffffffffffffffff81111561084a5761084a6105d6565b61085e8161085884546107a7565b846107e1565b602080601f831160018114610893576000841561087b5750858301515b600019600386901b1c1916600185901b178555610827565b600085815260208120601f198616915b828110156108c2578886015182559484019460019091019084016108a3565b50858210156108e05787850151600019600388901b60f8161c191681555b5050505050600190811b0190555056fea26469706673582212203b2d8982bf5ba0d6f603f564ae59aae353d4c77496fc35fbfba87350bd08606164736f6c634300081200337479206973205355504552204455504552204655434b494e47204d45474120636f6f6c",
    "linkReferences": {}
  },
  "methodIdentifiers": {
    "getSecretNumberAndPhrase()": "ec9d1fce",
    "getSecretPhrase()": "5df6697a",
    "getTysNumber()": "cec56314",
    "owner()": "8da5cb5b",
    "renounceOwnership()": "715018a6",
    "secretInStorage()": "fdb0db83",
    "secretNumber()": "c36604ed",
    "transferOwnership(address)": "f2fde38b",
    "tysSecretPhrase()": "043c8a95",
    "updateSecretInStorage((uint256,string))": "3e7cc591",
    "updateSecretNumber(uint256)": "378963ac",
    "updateSecretPhraseForBIGHOMETYDOG(string)": "f4f0d7ce"
  },
  "id": 2
}