{
  "abi": [
    {
      "inputs": [],
      "name": "getSecretNumber",
      "outputs": [
        {
          "internalType": "uint256",
          "name": "",
          "type": "uint256"
        }
      ],
      "stateMutability": "view",
      "type": "function"
    },
    {
      "inputs": [],
      "name": "getSecretNumberAndPhrase",
      "outputs": [
        {
          "internalType": "string",
          "name": "_secretPhrase",
          "type": "string"
        },
        {
          "internalType": "uint256",
          "name": "_secretNumber",
          "type": "uint256"
        }
      ],
      "stateMutability": "view",
      "type": "function"
    },
    {
      "inputs": [],
      "name": "getSecretPhrase",
      "outputs": [
        {
          "internalType": "string",
          "name": "_secretPhrase",
          "type": "string"
        }
      ],
      "stateMutability": "view",
      "type": "function"
    },
    {
      "inputs": [
        {
          "internalType": "string",
          "name": "_secretPhrase",
          "type": "string"
        }
      ],
      "name": "updatMarkosFavNumber",
      "outputs": [],
      "stateMutability": "nonpayable",
      "type": "function"
    },
    {
      "inputs": [
        {
          "internalType": "uint256",
          "name": "_secretNumber",
          "type": "uint256"
        }
      ],
      "name": "updateSecretNumber",
      "outputs": [],
      "stateMutability": "nonpayable",
      "type": "function"
    }
  ],
  "bytecode": {
    "object": "0x60c0604052600d60809081526c1b585c9adbc81a5cc818dbdbdb609a1b60a05260009061002c90826100e3565b50604560015534801561003e57600080fd5b506101a2565b634e487b7160e01b600052604160045260246000fd5b600181811c9082168061006e57607f821691505b60208210810361008e57634e487b7160e01b600052602260045260246000fd5b50919050565b601f8211156100de57600081815260208120601f850160051c810160208610156100bb5750805b601f850160051c820191505b818110156100da578281556001016100c7565b5050505b505050565b81516001600160401b038111156100fc576100fc610044565b6101108161010a845461005a565b84610094565b602080601f831160018114610145576000841561012d5750858301515b600019600386901b1c1916600185901b1785556100da565b600085815260208120601f198616915b8281101561017457888601518255948401946001909101908401610155565b50858210156101925787850151600019600388901b60f8161c191681555b5050505050600190811b01905550565b6104e8806101b16000396000f3fe608060405234801561001057600080fd5b50600436106100575760003560e01c8063378963ac1461005c5780635df6697a146100715780638182fe441461008f57806384c1d639146100a2578063ec9d1fce146100b3575b600080fd5b61006f61006a366004610207565b600155565b005b6100796100c9565b6040516100869190610266565b60405180910390f35b61006f61009d366004610296565b61015b565b600154604051908152602001610086565b6100bb61016b565b604051610086929190610347565b6060600080546100d890610369565b80601f016020809104026020016040519081016040528092919081815260200182805461010490610369565b80156101515780601f1061012657610100808354040283529160200191610151565b820191906000526020600020905b81548152906001019060200180831161013457829003601f168201915b5050505050905090565b600061016782826103f2565b5050565b606060008060015481805461017f90610369565b80601f01602080910402602001604051908101604052809291908181526020018280546101ab90610369565b80156101f85780601f106101cd576101008083540402835291602001916101f8565b820191906000526020600020905b8154815290600101906020018083116101db57829003601f168201915b50505050509150915091509091565b60006020828403121561021957600080fd5b5035919050565b6000815180845260005b818110156102465760208185018101518683018201520161022a565b506000602082860101526020601f19601f83011685010191505092915050565b6020815260006102796020830184610220565b9392505050565b634e487b7160e01b600052604160045260246000fd5b6000602082840312156102a857600080fd5b813567ffffffffffffffff808211156102c057600080fd5b818401915084601f8301126102d457600080fd5b8135818111156102e6576102e6610280565b604051601f8201601f19908116603f0116810190838211818310171561030e5761030e610280565b8160405282815287602084870101111561032757600080fd5b826020860160208301376000928101602001929092525095945050505050565b60408152600061035a6040830185610220565b90508260208301529392505050565b600181811c9082168061037d57607f821691505b60208210810361039d57634e487b7160e01b600052602260045260246000fd5b50919050565b601f8211156103ed57600081815260208120601f850160051c810160208610156103ca5750805b601f850160051c820191505b818110156103e9578281556001016103d6565b5050505b505050565b815167ffffffffffffffff81111561040c5761040c610280565b6104208161041a8454610369565b846103a3565b602080601f831160018114610455576000841561043d5750858301515b600019600386901b1c1916600185901b1785556103e9565b600085815260208120601f198616915b8281101561048457888601518255948401946001909101908401610465565b50858210156104a25787850151600019600388901b60f8161c191681555b5050505050600190811b0190555056fea2646970667358221220d694cf42a992d6834adfdf4122424f4a614a03a323dc8bd15e7f7e370c08cd3d64736f6c63430008120033",
    "linkReferences": {}
  },
  "methodIdentifiers": {
    "getSecretNumber()": "84c1d639",
    "getSecretNumberAndPhrase()": "ec9d1fce",
    "getSecretPhrase()": "5df6697a",
    "updatMarkosFavNumber(string)": "8182fe44",
    "updateSecretNumber(uint256)": "378963ac"
  },
  "id": 0
}