{
  "abi": [
    {
      "anonymous": false,
      "inputs": [
        {
          "indexed": true,
          "internalType": "address",
          "name": "previousOwner",
          "type": "address"
        },
        {
          "indexed": true,
          "internalType": "address",
          "name": "newOwner",
          "type": "address"
        }
      ],
      "name": "OwnershipTransferred",
      "type": "event"
    },
    {
      "inputs": [],
      "name": "getSecretNumber",
      "outputs": [
        {
          "internalType": "uint256",
          "name": "",
          "type": "uint256"
        }
      ],
      "stateMutability": "view",
      "type": "function"
    },
    {
      "inputs": [],
      "name": "getSecretNumberAndPhrase",
      "outputs": [
        {
          "internalType": "string",
          "name": "_secretPhrase",
          "type": "string"
        },
        {
          "internalType": "uint256",
          "name": "_secretNumber",
          "type": "uint256"
        }
      ],
      "stateMutability": "view",
      "type": "function"
    },
    {
      "inputs": [],
      "name": "getSecretPhrase",
      "outputs": [
        {
          "internalType": "string",
          "name": "_secretPhrase",
          "type": "string"
        }
      ],
      "stateMutability": "view",
      "type": "function"
    },
    {
      "inputs": [],
      "name": "owner",
      "outputs": [
        {
          "internalType": "address",
          "name": "",
          "type": "address"
        }
      ],
      "stateMutability": "view",
      "type": "function"
    },
    {
      "inputs": [],
      "name": "renounceOwnership",
      "outputs": [],
      "stateMutability": "nonpayable",
      "type": "function"
    },
    {
      "inputs": [],
      "name": "secretInStorage",
      "outputs": [
        {
          "internalType": "uint256",
          "name": "secretNumber",
          "type": "uint256"
        },
        {
          "internalType": "string",
          "name": "secretPrase",
          "type": "string"
        }
      ],
      "stateMutability": "view",
      "type": "function"
    },
    {
      "inputs": [],
      "name": "secretNumber",
      "outputs": [
        {
          "internalType": "uint256",
          "name": "",
          "type": "uint256"
        }
      ],
      "stateMutability": "view",
      "type": "function"
    },
    {
      "inputs": [],
      "name": "secretPhrase",
      "outputs": [
        {
          "internalType": "string",
          "name": "",
          "type": "string"
        }
      ],
      "stateMutability": "view",
      "type": "function"
    },
    {
      "inputs": [
        {
          "internalType": "address",
          "name": "newOwner",
          "type": "address"
        }
      ],
      "name": "transferOwnership",
      "outputs": [],
      "stateMutability": "nonpayable",
      "type": "function"
    },
    {
      "inputs": [
        {
          "components": [
            {
              "internalType": "uint256",
              "name": "secretNumber",
              "type": "uint256"
            },
            {
              "internalType": "string",
              "name": "secretPrase",
              "type": "string"
            }
          ],
          "internalType": "struct SecretKeeper.SecretStorage",
          "name": "secretParam",
          "type": "tuple"
        }
      ],
      "name": "updateSecretInStorage",
      "outputs": [],
      "stateMutability": "nonpayable",
      "type": "function"
    },
    {
      "inputs": [
        {
          "internalType": "uint256",
          "name": "_secretNumber",
          "type": "uint256"
        }
      ],
      "name": "updateSecretNumber",
      "outputs": [],
      "stateMutability": "nonpayable",
      "type": "function"
    },
    {
      "inputs": [
        {
          "internalType": "string",
          "name": "_secretPhrase",
          "type": "string"
        }
      ],
      "name": "updateSecretPhrase",
      "outputs": [],
      "stateMutability": "nonpayable",
      "type": "function"
    }
  ],
  "bytecode": {
    "object": "0x60c0604052602060809081527f74657374696e6720747572626f2d69676e6f726520616761696e20414741494e60a05260019061003c908261019e565b50611a0b6002556040805180820182526103e781528151808301909252600c82526b1cdd5c195c881cd958dc995d60a21b6020838101919091528101829052805160039081559091600490610091908261019e565b5050503480156100a057600080fd5b506100aa336100af565b61025d565b600080546001600160a01b038381166001600160a01b0319831681178455604051919092169283917f8be0079c531659141344cd1fd0a4f28419497f9722a3daafe3b4186f6b6457e09190a35050565b634e487b7160e01b600052604160045260246000fd5b600181811c9082168061012957607f821691505b60208210810361014957634e487b7160e01b600052602260045260246000fd5b50919050565b601f82111561019957600081815260208120601f850160051c810160208610156101765750805b601f850160051c820191505b8181101561019557828155600101610182565b5050505b505050565b81516001600160401b038111156101b7576101b76100ff565b6101cb816101c58454610115565b8461014f565b602080601f83116001811461020057600084156101e85750858301515b600019600386901b1c1916600185901b178555610195565b600085815260208120601f198616915b8281101561022f57888601518255948401946001909101908401610210565b508582101561024d5787850151600019600388901b60f8161c191681555b5050505050600190811b01905550565b610922806200026d6000396000f3fe608060405234801561001057600080fd5b50600436106100b45760003560e01c806384c1d6391161007157806384c1d639146101225780638da5cb5b14610134578063c36604ed1461014f578063ec9d1fce14610158578063f2fde38b1461016e578063fdb0db831461018157600080fd5b806316d1a438146100b95780633356a758146100ce578063378963ac146100ec5780633e7cc591146100ff5780635df6697a14610112578063715018a61461011a575b600080fd5b6100cc6100c73660046105fc565b610197565b005b6100d66101a7565b6040516100e3919061067f565b60405180910390f35b6100cc6100fa366004610699565b600255565b6100cc61010d3660046106b2565b610235565b6100d6610257565b6100cc6102e9565b6002545b6040519081526020016100e3565b6000546040516001600160a01b0390911681526020016100e3565b61012660025481565b6101606102fd565b6040516100e392919061073f565b6100cc61017c366004610761565b61039a565b610189610418565b6040516100e392919061078a565b60016101a3828261082c565b5050565b600180546101b4906107a3565b80601f01602080910402602001604051908101604052809291908181526020018280546101e0906107a3565b801561022d5780601f106102025761010080835404028352916020019161022d565b820191906000526020600020905b81548152906001019060200180831161021057829003601f168201915b505050505081565b805160039081556020820151829190600490610251908261082c565b50505050565b606060018054610266906107a3565b80601f0160208091040260200160405190810160405280929190818152602001828054610292906107a3565b80156102df5780601f106102b4576101008083540402835291602001916102df565b820191906000526020600020905b8154815290600101906020018083116102c257829003601f168201915b5050505050905090565b6102f16104af565b6102fb6000610509565b565b606060006001600254818054610312906107a3565b80601f016020809104026020016040519081016040528092919081815260200182805461033e906107a3565b801561038b5780601f106103605761010080835404028352916020019161038b565b820191906000526020600020905b81548152906001019060200180831161036e57829003601f168201915b50505050509150915091509091565b6103a26104af565b6001600160a01b03811661040c5760405162461bcd60e51b815260206004820152602660248201527f4f776e61626c653a206e6577206f776e657220697320746865207a65726f206160448201526564647265737360d01b60648201526084015b60405180910390fd5b61041581610509565b50565b600380546004805491929161042c906107a3565b80601f0160208091040260200160405190810160405280929190818152602001828054610458906107a3565b80156104a55780601f1061047a576101008083540402835291602001916104a5565b820191906000526020600020905b81548152906001019060200180831161048857829003601f168201915b5050505050905082565b6000546001600160a01b031633146102fb5760405162461bcd60e51b815260206004820181905260248201527f4f776e61626c653a2063616c6c6572206973206e6f7420746865206f776e65726044820152606401610403565b600080546001600160a01b038381166001600160a01b0319831681178455604051919092169283917f8be0079c531659141344cd1fd0a4f28419497f9722a3daafe3b4186f6b6457e09190a35050565b634e487b7160e01b600052604160045260246000fd5b600082601f83011261058057600080fd5b813567ffffffffffffffff8082111561059b5761059b610559565b604051601f8301601f19908116603f011681019082821181831017156105c3576105c3610559565b816040528381528660208588010111156105dc57600080fd5b836020870160208301376000602085830101528094505050505092915050565b60006020828403121561060e57600080fd5b813567ffffffffffffffff81111561062557600080fd5b6106318482850161056f565b949350505050565b6000815180845260005b8181101561065f57602081850181015186830182015201610643565b506000602082860101526020601f19601f83011685010191505092915050565b6020815260006106926020830184610639565b9392505050565b6000602082840312156106ab57600080fd5b5035919050565b6000602082840312156106c457600080fd5b813567ffffffffffffffff808211156106dc57600080fd5b90830190604082860312156106f057600080fd5b60405160408101818110838211171561070b5761070b610559565b6040528235815260208301358281111561072457600080fd5b6107308782860161056f565b60208301525095945050505050565b6040815260006107526040830185610639565b90508260208301529392505050565b60006020828403121561077357600080fd5b81356001600160a01b038116811461069257600080fd5b8281526040602082015260006106316040830184610639565b600181811c908216806107b757607f821691505b6020821081036107d757634e487b7160e01b600052602260045260246000fd5b50919050565b601f82111561082757600081815260208120601f850160051c810160208610156108045750805b601f850160051c820191505b8181101561082357828155600101610810565b5050505b505050565b815167ffffffffffffffff81111561084657610846610559565b61085a8161085484546107a3565b846107dd565b602080601f83116001811461088f57600084156108775750858301515b600019600386901b1c1916600185901b178555610823565b600085815260208120601f198616915b828110156108be5788860151825594840194600190910190840161089f565b50858210156108dc5787850151600019600388901b60f8161c191681555b5050505050600190811b0190555056fea26469706673582212205d2d33d4f8f968fe67245450c32071c00e2608ce33437753cfca3c54fd11febd64736f6c63430008120033",
    "linkReferences": {}
  },
  "methodIdentifiers": {
    "getSecretNumber()": "84c1d639",
    "getSecretNumberAndPhrase()": "ec9d1fce",
    "getSecretPhrase()": "5df6697a",
    "owner()": "8da5cb5b",
    "renounceOwnership()": "715018a6",
    "secretInStorage()": "fdb0db83",
    "secretNumber()": "c36604ed",
    "secretPhrase()": "3356a758",
    "transferOwnership(address)": "f2fde38b",
    "updateSecretInStorage((uint256,string))": "3e7cc591",
    "updateSecretNumber(uint256)": "378963ac",
    "updateSecretPhrase(string)": "16d1a438"
  },
  "id": 2
}