{
  "abi": [
    {
      "inputs": [
        {
          "internalType": "uint256",
          "name": "startNum",
          "type": "uint256"
        },
        {
          "internalType": "string",
          "name": "startPhrase",
          "type": "string"
        }
      ],
      "stateMutability": "nonpayable",
      "type": "constructor"
    },
    {
      "anonymous": false,
      "inputs": [
        {
          "indexed": true,
          "internalType": "address",
          "name": "previousOwner",
          "type": "address"
        },
        {
          "indexed": true,
          "internalType": "address",
          "name": "newOwner",
          "type": "address"
        }
      ],
      "name": "OwnershipTransferred",
      "type": "event"
    },
    {
      "inputs": [
        {
          "internalType": "string",
          "name": "_secretPhrase",
          "type": "string"
        }
      ],
      "name": "getConcatPhrase",
      "outputs": [
        {
          "internalType": "string",
          "name": "_secretConcatPhrase",
          "type": "string"
        }
      ],
      "stateMutability": "view",
      "type": "function"
    },
    {
      "inputs": [],
      "name": "getMaisiesNumber",
      "outputs": [
        {
          "internalType": "uint256",
          "name": "",
          "type": "uint256"
        }
      ],
      "stateMutability": "view",
      "type": "function"
    },
    {
      "inputs": [],
      "name": "getSecretNumberAndPhrase",
      "outputs": [
        {
          "internalType": "string",
          "name": "_secretPhrase",
          "type": "string"
        },
        {
          "internalType": "uint256",
          "name": "_secretNumber",
          "type": "uint256"
        }
      ],
      "stateMutability": "view",
      "type": "function"
    },
    {
      "inputs": [],
      "name": "getSecretPhrase",
      "outputs": [
        {
          "internalType": "string",
          "name": "_secretPhrase",
          "type": "string"
        }
      ],
      "stateMutability": "view",
      "type": "function"
    },
    {
      "inputs": [],
      "name": "owner",
      "outputs": [
        {
          "internalType": "address",
          "name": "",
          "type": "address"
        }
      ],
      "stateMutability": "view",
      "type": "function"
    },
    {
      "inputs": [],
      "name": "renounceOwnership",
      "outputs": [],
      "stateMutability": "nonpayable",
      "type": "function"
    },
    {
      "inputs": [],
      "name": "secretInStorage",
      "outputs": [
        {
          "internalType": "uint256",
          "name": "secretNumber",
          "type": "uint256"
        },
        {
          "internalType": "string",
          "name": "secretPrase",
          "type": "string"
        }
      ],
      "stateMutability": "view",
      "type": "function"
    },
    {
      "inputs": [],
      "name": "secretNumber",
      "outputs": [
        {
          "internalType": "uint256",
          "name": "",
          "type": "uint256"
        }
      ],
      "stateMutability": "view",
      "type": "function"
    },
    {
      "inputs": [],
      "name": "secretPhrase",
      "outputs": [
        {
          "internalType": "string",
          "name": "",
          "type": "string"
        }
      ],
      "stateMutability": "view",
      "type": "function"
    },
    {
      "inputs": [
        {
          "internalType": "address",
          "name": "newOwner",
          "type": "address"
        }
      ],
      "name": "transferOwnership",
      "outputs": [],
      "stateMutability": "nonpayable",
      "type": "function"
    },
    {
      "inputs": [
        {
          "components": [
            {
              "internalType": "uint256",
              "name": "secretNumber",
              "type": "uint256"
            },
            {
              "internalType": "string",
              "name": "secretPrase",
              "type": "string"
            }
          ],
          "internalType": "struct SecretKeeper.SecretStorage",
          "name": "secretParam",
          "type": "tuple"
        }
      ],
      "name": "updateSecretInStorage",
      "outputs": [
        {
          "internalType": "string",
          "name": "_secretPhrase",
          "type": "string"
        },
        {
          "internalType": "uint256",
          "name": "_secretNumber",
          "type": "uint256"
        }
      ],
      "stateMutability": "nonpayable",
      "type": "function"
    },
    {
      "inputs": [
        {
          "internalType": "uint256",
          "name": "_secretNumber",
          "type": "uint256"
        }
      ],
      "name": "updateSecretNumber",
      "outputs": [],
      "stateMutability": "nonpayable",
      "type": "function"
    },
    {
      "inputs": [
        {
          "internalType": "string",
          "name": "_secretPhrase",
          "type": "string"
        }
      ],
      "name": "updateSecretPhraseSauze",
      "outputs": [],
      "stateMutability": "nonpayable",
      "type": "function"
    },
    {
      "inputs": [
        {
          "components": [
            {
              "internalType": "uint256",
              "name": "secretNumber",
              "type": "uint256"
            },
            {
              "internalType": "string",
              "name": "secretPrase",
              "type": "string"
            }
          ],
          "internalType": "struct SecretKeeper.SecretStorage",
          "name": "secretParam",
          "type": "tuple"
        }
      ],
      "name": "writeWith1Return",
      "outputs": [
        {
          "internalType": "string",
          "name": "_secretPhrase",
          "type": "string"
        }
      ],
      "stateMutability": "nonpayable",
      "type": "function"
    }
  ],
  "bytecode": {
    "object": "0x611b396080818152610100604052601060c09081526f1c185c98591a59db481a5cc818dbdbdb60821b60e05260a0819052600392835590919060049062000047908262000196565b5050503480156200005757600080fd5b5060405162000db838038062000db88339810160408190526200007a9162000262565b6200008533620000a1565b6002829055600162000098828262000196565b50505062000342565b600080546001600160a01b038381166001600160a01b0319831681178455604051919092169283917f8be0079c531659141344cd1fd0a4f28419497f9722a3daafe3b4186f6b6457e09190a35050565b634e487b7160e01b600052604160045260246000fd5b600181811c908216806200011c57607f821691505b6020821081036200013d57634e487b7160e01b600052602260045260246000fd5b50919050565b601f8211156200019157600081815260208120601f850160051c810160208610156200016c5750805b601f850160051c820191505b818110156200018d5782815560010162000178565b5050505b505050565b81516001600160401b03811115620001b257620001b2620000f1565b620001ca81620001c3845462000107565b8462000143565b602080601f831160018114620002025760008415620001e95750858301515b600019600386901b1c1916600185901b1785556200018d565b600085815260208120601f198616915b82811015620002335788860151825594840194600190910190840162000212565b5085821015620002525787850151600019600388901b60f8161c191681555b5050505050600190811b01905550565b600080604083850312156200027657600080fd5b8251602080850151919350906001600160401b03808211156200029857600080fd5b818601915086601f830112620002ad57600080fd5b815181811115620002c257620002c2620000f1565b604051601f8201601f19908116603f01168101908382118183101715620002ed57620002ed620000f1565b8160405282815289868487010111156200030657600080fd5b600093505b828410156200032a57848401860151818501870152928501926200030b565b60008684830101528096505050505050509250929050565b610a6680620003526000396000f3fe608060405234801561001057600080fd5b50600436106100ea5760003560e01c8063c36604ed1161008c578063f2fde38b11610066578063f2fde38b146101b3578063f50c46b3146101c6578063f7053d4e146101d9578063fdb0db83146101e157600080fd5b8063c36604ed14610181578063ec17ec6714610198578063ec9d1fce146101ab57600080fd5b80633e7cc591116100c85780633e7cc591146101355780635df6697a14610156578063715018a61461015e5780638da5cb5b1461016657600080fd5b806323e40cea146100ef5780633356a75814610118578063378963ac14610120575b600080fd5b6101026100fd3660046106af565b6101f7565b60405161010f919061078c565b60405180910390f35b61010261021a565b61013361012e3660046107a6565b600255565b005b6101486101433660046106af565b6102a8565b60405161010f9291906107bf565b6101026102ce565b610133610360565b6000546040516001600160a01b03909116815260200161010f565b61018a60025481565b60405190815260200161010f565b6101336101a63660046107e1565b610374565b610148610384565b6101336101c136600461081e565b610421565b6101026101d43660046107e1565b61049f565b60025461018a565b6101e96104cb565b60405161010f929190610847565b6020810151815160039081558290600461021184826108e9565b50905050919050565b6001805461022790610860565b80601f016020809104026020016040519081016040528092919081815260200182805461025390610860565b80156102a05780601f10610275576101008083540402835291602001916102a0565b820191906000526020600020905b81548152906001019060200180831161028357829003601f168201915b505050505081565b805160208201516003828155909190839060046102c585826108e9565b50905050915091565b6060600180546102dd90610860565b80601f016020809104026020016040519081016040528092919081815260200182805461030990610860565b80156103565780601f1061032b57610100808354040283529160200191610356565b820191906000526020600020905b81548152906001019060200180831161033957829003601f168201915b5050505050905090565b610368610562565b61037260006105bc565b565b600161038082826108e9565b5050565b60606000600160025481805461039990610860565b80601f01602080910402602001604051908101604052809291908181526020018280546103c590610860565b80156104125780601f106103e757610100808354040283529160200191610412565b820191906000526020600020905b8154815290600101906020018083116103f557829003601f168201915b50505050509150915091509091565b610429610562565b6001600160a01b0381166104935760405162461bcd60e51b815260206004820152602660248201527f4f776e61626c653a206e6577206f776e657220697320746865207a65726f206160448201526564647265737360d01b60648201526084015b60405180910390fd5b61049c816105bc565b50565b60606001826040516020016104b59291906109a9565b6040516020818303038152906040529050919050565b60038054600480549192916104df90610860565b80601f016020809104026020016040519081016040528092919081815260200182805461050b90610860565b80156105585780601f1061052d57610100808354040283529160200191610558565b820191906000526020600020905b81548152906001019060200180831161053b57829003601f168201915b5050505050905082565b6000546001600160a01b031633146103725760405162461bcd60e51b815260206004820181905260248201527f4f776e61626c653a2063616c6c6572206973206e6f7420746865206f776e6572604482015260640161048a565b600080546001600160a01b038381166001600160a01b0319831681178455604051919092169283917f8be0079c531659141344cd1fd0a4f28419497f9722a3daafe3b4186f6b6457e09190a35050565b634e487b7160e01b600052604160045260246000fd5b600082601f83011261063357600080fd5b813567ffffffffffffffff8082111561064e5761064e61060c565b604051601f8301601f19908116603f011681019082821181831017156106765761067661060c565b8160405283815286602085880101111561068f57600080fd5b836020870160208301376000602085830101528094505050505092915050565b6000602082840312156106c157600080fd5b813567ffffffffffffffff808211156106d957600080fd5b90830190604082860312156106ed57600080fd5b6040516040810181811083821117156107085761070861060c565b6040528235815260208301358281111561072157600080fd5b61072d87828601610622565b60208301525095945050505050565b60005b8381101561075757818101518382015260200161073f565b50506000910152565b6000815180845261077881602086016020860161073c565b601f01601f19169290920160200192915050565b60208152600061079f6020830184610760565b9392505050565b6000602082840312156107b857600080fd5b5035919050565b6040815260006107d26040830185610760565b90508260208301529392505050565b6000602082840312156107f357600080fd5b813567ffffffffffffffff81111561080a57600080fd5b61081684828501610622565b949350505050565b60006020828403121561083057600080fd5b81356001600160a01b038116811461079f57600080fd5b8281526040602082015260006108166040830184610760565b600181811c9082168061087457607f821691505b60208210810361089457634e487b7160e01b600052602260045260246000fd5b50919050565b601f8211156108e457600081815260208120601f850160051c810160208610156108c15750805b601f850160051c820191505b818110156108e0578281556001016108cd565b5050505b505050565b815167ffffffffffffffff8111156109035761090361060c565b610917816109118454610860565b8461089a565b602080601f83116001811461094c57600084156109345750858301515b600019600386901b1c1916600185901b1785556108e0565b600085815260208120601f198616915b8281101561097b5788860151825594840194600190910190840161095c565b50858210156109995787850151600019600388901b60f8161c191681555b5050505050600190811b01905550565b60008084546109b781610860565b600182811680156109cf57600181146109e457610a13565b60ff1984168752821515830287019450610a13565b8860005260208060002060005b85811015610a0a5781548a8201529084019082016109f1565b50505082870194505b505050508351610a2781836020880161073c565b0194935050505056fea264697066735822122086997b0f30b2a174cc87ce8a7da624f0fb616ff9a9c36ad5d7da955d631717ff64736f6c63430008120033",
    "linkReferences": {}
  },
  "methodIdentifiers": {
    "getConcatPhrase(string)": "f50c46b3",
    "getMaisiesNumber()": "f7053d4e",
    "getSecretNumberAndPhrase()": "ec9d1fce",
    "getSecretPhrase()": "5df6697a",
    "owner()": "8da5cb5b",
    "renounceOwnership()": "715018a6",
    "secretInStorage()": "fdb0db83",
    "secretNumber()": "c36604ed",
    "secretPhrase()": "3356a758",
    "transferOwnership(address)": "f2fde38b",
    "updateSecretInStorage((uint256,string))": "3e7cc591",
    "updateSecretNumber(uint256)": "378963ac",
    "updateSecretPhraseSauze(string)": "ec17ec67",
    "writeWith1Return((uint256,string))": "23e40cea"
  },
  "id": 20
}