{
  "abi": [
    {
      "anonymous": false,
      "inputs": [
        {
          "indexed": true,
          "internalType": "address",
          "name": "previousOwner",
          "type": "address"
        },
        {
          "indexed": true,
          "internalType": "address",
          "name": "newOwner",
          "type": "address"
        }
      ],
      "name": "OwnershipTransferred",
      "type": "event"
    },
    {
      "inputs": [],
      "name": "getSaucesNumber",
      "outputs": [
        {
          "internalType": "uint256",
          "name": "",
          "type": "uint256"
        }
      ],
      "stateMutability": "view",
      "type": "function"
    },
    {
      "inputs": [],
      "name": "getSecretNumberAndPhrase",
      "outputs": [
        {
          "internalType": "string",
          "name": "_secretPhrase",
          "type": "string"
        },
        {
          "internalType": "uint256",
          "name": "_secretNumber",
          "type": "uint256"
        }
      ],
      "stateMutability": "view",
      "type": "function"
    },
    {
      "inputs": [],
      "name": "getSecretPhrase",
      "outputs": [
        {
          "internalType": "string",
          "name": "_secretPhrase",
          "type": "string"
        }
      ],
      "stateMutability": "view",
      "type": "function"
    },
    {
      "inputs": [],
      "name": "owner",
      "outputs": [
        {
          "internalType": "address",
          "name": "",
          "type": "address"
        }
      ],
      "stateMutability": "view",
      "type": "function"
    },
    {
      "inputs": [],
      "name": "renounceOwnership",
      "outputs": [],
      "stateMutability": "nonpayable",
      "type": "function"
    },
    {
      "inputs": [],
      "name": "saucesSecretPhrase",
      "outputs": [
        {
          "internalType": "string",
          "name": "",
          "type": "string"
        }
      ],
      "stateMutability": "view",
      "type": "function"
    },
    {
      "inputs": [],
      "name": "secretInStorage",
      "outputs": [
        {
          "internalType": "uint256",
          "name": "secretNumber",
          "type": "uint256"
        },
        {
          "internalType": "string",
          "name": "secretPrase",
          "type": "string"
        }
      ],
      "stateMutability": "view",
      "type": "function"
    },
    {
      "inputs": [],
      "name": "secretNumber",
      "outputs": [
        {
          "internalType": "uint256",
          "name": "",
          "type": "uint256"
        }
      ],
      "stateMutability": "view",
      "type": "function"
    },
    {
      "inputs": [
        {
          "internalType": "address",
          "name": "newOwner",
          "type": "address"
        }
      ],
      "name": "transferOwnership",
      "outputs": [],
      "stateMutability": "nonpayable",
      "type": "function"
    },
    {
      "inputs": [
        {
          "components": [
            {
              "internalType": "uint256",
              "name": "secretNumber",
              "type": "uint256"
            },
            {
              "internalType": "string",
              "name": "secretPrase",
              "type": "string"
            }
          ],
          "internalType": "struct SecretKeeper.SecretStorage",
          "name": "secretParam",
          "type": "tuple"
        }
      ],
      "name": "updateSecretInStorage",
      "outputs": [],
      "stateMutability": "nonpayable",
      "type": "function"
    },
    {
      "inputs": [
        {
          "internalType": "uint256",
          "name": "_secretNumber",
          "type": "uint256"
        }
      ],
      "name": "updateSecretNumber",
      "outputs": [],
      "stateMutability": "nonpayable",
      "type": "function"
    },
    {
      "inputs": [
        {
          "internalType": "string",
          "name": "_secretPhrase",
          "type": "string"
        }
      ],
      "name": "updateSecretPhraseSauze",
      "outputs": [],
      "stateMutability": "nonpayable",
      "type": "function"
    }
  ],
  "bytecode": {
    "object": "0x60c0604052601760809081527f736175636520697320746865207375706572206265737400000000000000000060a05260019061003c908261019a565b50600a600255604080518082018252611b3981528151808301909252600982526864656578206e75747360b81b602083810191909152810182905280516003908155909160049061008d908261019a565b50505034801561009c57600080fd5b506100a6336100ab565b610259565b600080546001600160a01b038381166001600160a01b0319831681178455604051919092169283917f8be0079c531659141344cd1fd0a4f28419497f9722a3daafe3b4186f6b6457e09190a35050565b634e487b7160e01b600052604160045260246000fd5b600181811c9082168061012557607f821691505b60208210810361014557634e487b7160e01b600052602260045260246000fd5b50919050565b601f82111561019557600081815260208120601f850160051c810160208610156101725750805b601f850160051c820191505b818110156101915782815560010161017e565b5050505b505050565b81516001600160401b038111156101b3576101b36100fb565b6101c7816101c18454610111565b8461014b565b602080601f8311600181146101fc57600084156101e45750858301515b600019600386901b1c1916600185901b178555610191565b600085815260208120601f198616915b8281101561022b5788860151825594840194600190910190840161020c565b50858210156102495787850151600019600388901b60f8161c191681555b5050505050600190811b01905550565b61092280620002696000396000f3fe608060405234801561001057600080fd5b50600436106100b45760003560e01c8063a997307e11610071578063a997307e1461012a578063c36604ed1461013c578063ec17ec6714610145578063ec9d1fce14610158578063f2fde38b1461016e578063fdb0db831461018157600080fd5b8063378963ac146100b95780633e7cc591146100ce5780635df6697a146100e1578063715018a6146100ff5780638da5cb5b14610107578063959ab7b314610122575b600080fd5b6100cc6100c7366004610559565b600255565b005b6100cc6100dc366004610615565b610197565b6100e96101b9565b6040516100f691906106e8565b60405180910390f35b6100cc61024b565b6000546040516001600160a01b0390911681526020016100f6565b6100e961025f565b6002545b6040519081526020016100f6565b61012e60025481565b6100cc610153366004610702565b6102ed565b6101606102fd565b6040516100f692919061073f565b6100cc61017c366004610761565b61039a565b610189610418565b6040516100f692919061078a565b8051600390815560208201518291906004906101b3908261082c565b50505050565b6060600180546101c8906107a3565b80601f01602080910402602001604051908101604052809291908181526020018280546101f4906107a3565b80156102415780601f1061021657610100808354040283529160200191610241565b820191906000526020600020905b81548152906001019060200180831161022457829003601f168201915b5050505050905090565b6102536104af565b61025d6000610509565b565b6001805461026c906107a3565b80601f0160208091040260200160405190810160405280929190818152602001828054610298906107a3565b80156102e55780601f106102ba576101008083540402835291602001916102e5565b820191906000526020600020905b8154815290600101906020018083116102c857829003601f168201915b505050505081565b60016102f9828261082c565b5050565b606060006001600254818054610312906107a3565b80601f016020809104026020016040519081016040528092919081815260200182805461033e906107a3565b801561038b5780601f106103605761010080835404028352916020019161038b565b820191906000526020600020905b81548152906001019060200180831161036e57829003601f168201915b50505050509150915091509091565b6103a26104af565b6001600160a01b03811661040c5760405162461bcd60e51b815260206004820152602660248201527f4f776e61626c653a206e6577206f776e657220697320746865207a65726f206160448201526564647265737360d01b60648201526084015b60405180910390fd5b61041581610509565b50565b600380546004805491929161042c906107a3565b80601f0160208091040260200160405190810160405280929190818152602001828054610458906107a3565b80156104a55780601f1061047a576101008083540402835291602001916104a5565b820191906000526020600020905b81548152906001019060200180831161048857829003601f168201915b5050505050905082565b6000546001600160a01b0316331461025d5760405162461bcd60e51b815260206004820181905260248201527f4f776e61626c653a2063616c6c6572206973206e6f7420746865206f776e65726044820152606401610403565b600080546001600160a01b038381166001600160a01b0319831681178455604051919092169283917f8be0079c531659141344cd1fd0a4f28419497f9722a3daafe3b4186f6b6457e09190a35050565b60006020828403121561056b57600080fd5b5035919050565b634e487b7160e01b600052604160045260246000fd5b600082601f83011261059957600080fd5b813567ffffffffffffffff808211156105b4576105b4610572565b604051601f8301601f19908116603f011681019082821181831017156105dc576105dc610572565b816040528381528660208588010111156105f557600080fd5b836020870160208301376000602085830101528094505050505092915050565b60006020828403121561062757600080fd5b813567ffffffffffffffff8082111561063f57600080fd5b908301906040828603121561065357600080fd5b60405160408101818110838211171561066e5761066e610572565b6040528235815260208301358281111561068757600080fd5b61069387828601610588565b60208301525095945050505050565b6000815180845260005b818110156106c8576020818501810151868301820152016106ac565b506000602082860101526020601f19601f83011685010191505092915050565b6020815260006106fb60208301846106a2565b9392505050565b60006020828403121561071457600080fd5b813567ffffffffffffffff81111561072b57600080fd5b61073784828501610588565b949350505050565b60408152600061075260408301856106a2565b90508260208301529392505050565b60006020828403121561077357600080fd5b81356001600160a01b03811681146106fb57600080fd5b82815260406020820152600061073760408301846106a2565b600181811c908216806107b757607f821691505b6020821081036107d757634e487b7160e01b600052602260045260246000fd5b50919050565b601f82111561082757600081815260208120601f850160051c810160208610156108045750805b601f850160051c820191505b8181101561082357828155600101610810565b5050505b505050565b815167ffffffffffffffff81111561084657610846610572565b61085a8161085484546107a3565b846107dd565b602080601f83116001811461088f57600084156108775750858301515b600019600386901b1c1916600185901b178555610823565b600085815260208120601f198616915b828110156108be5788860151825594840194600190910190840161089f565b50858210156108dc5787850151600019600388901b60f8161c191681555b5050505050600190811b0190555056fea264697066735822122001e73b04763f6b24ee7fb074b11210b1932dc5e7e8bf9a73ea7758002baf8e8864736f6c63430008120033",
    "linkReferences": {}
  },
  "methodIdentifiers": {
    "getSaucesNumber()": "a997307e",
    "getSecretNumberAndPhrase()": "ec9d1fce",
    "getSecretPhrase()": "5df6697a",
    "owner()": "8da5cb5b",
    "renounceOwnership()": "715018a6",
    "saucesSecretPhrase()": "959ab7b3",
    "secretInStorage()": "fdb0db83",
    "secretNumber()": "c36604ed",
    "transferOwnership(address)": "f2fde38b",
    "updateSecretInStorage((uint256,string))": "3e7cc591",
    "updateSecretNumber(uint256)": "378963ac",
    "updateSecretPhraseSauze(string)": "ec17ec67"
  },
  "id": 2
}