{
  "abi": [
    {
      "anonymous": false,
      "inputs": [
        {
          "indexed": true,
          "internalType": "address",
          "name": "previousOwner",
          "type": "address"
        },
        {
          "indexed": true,
          "internalType": "address",
          "name": "newOwner",
          "type": "address"
        }
      ],
      "name": "OwnershipTransferred",
      "type": "event"
    },
    {
      "inputs": [],
      "name": "getSaucesNumber",
      "outputs": [
        {
          "internalType": "uint256",
          "name": "",
          "type": "uint256"
        }
      ],
      "stateMutability": "view",
      "type": "function"
    },
    {
      "inputs": [],
      "name": "getSecretNumberAndPhrase",
      "outputs": [
        {
          "internalType": "string",
          "name": "_secretPhrase",
          "type": "string"
        },
        {
          "internalType": "uint256",
          "name": "_secretNumber",
          "type": "uint256"
        }
      ],
      "stateMutability": "view",
      "type": "function"
    },
    {
      "inputs": [],
      "name": "getSecretPhrase",
      "outputs": [
        {
          "internalType": "string",
          "name": "_secretPhrase",
          "type": "string"
        }
      ],
      "stateMutability": "view",
      "type": "function"
    },
    {
      "inputs": [],
      "name": "owner",
      "outputs": [
        {
          "internalType": "address",
          "name": "",
          "type": "address"
        }
      ],
      "stateMutability": "view",
      "type": "function"
    },
    {
      "inputs": [],
      "name": "renounceOwnership",
      "outputs": [],
      "stateMutability": "nonpayable",
      "type": "function"
    },
    {
      "inputs": [],
      "name": "saucesSecretPhrase",
      "outputs": [
        {
          "internalType": "string",
          "name": "",
          "type": "string"
        }
      ],
      "stateMutability": "view",
      "type": "function"
    },
    {
      "inputs": [],
      "name": "secretInStorage",
      "outputs": [
        {
          "internalType": "uint256",
          "name": "secretNumber",
          "type": "uint256"
        },
        {
          "internalType": "string",
          "name": "secretPrase",
          "type": "string"
        }
      ],
      "stateMutability": "view",
      "type": "function"
    },
    {
      "inputs": [],
      "name": "secretNumber",
      "outputs": [
        {
          "internalType": "uint256",
          "name": "",
          "type": "uint256"
        }
      ],
      "stateMutability": "view",
      "type": "function"
    },
    {
      "inputs": [
        {
          "internalType": "address",
          "name": "newOwner",
          "type": "address"
        }
      ],
      "name": "transferOwnership",
      "outputs": [],
      "stateMutability": "nonpayable",
      "type": "function"
    },
    {
      "inputs": [
        {
          "components": [
            {
              "internalType": "uint256",
              "name": "secretNumber",
              "type": "uint256"
            },
            {
              "internalType": "string",
              "name": "secretPrase",
              "type": "string"
            }
          ],
          "internalType": "struct SecretKeeper.SecretStorage",
          "name": "secretParam",
          "type": "tuple"
        }
      ],
      "name": "updateSecretInStorage",
      "outputs": [
        {
          "internalType": "string",
          "name": "_secretPhrase",
          "type": "string"
        },
        {
          "internalType": "uint256",
          "name": "_secretNumber",
          "type": "uint256"
        }
      ],
      "stateMutability": "nonpayable",
      "type": "function"
    },
    {
      "inputs": [
        {
          "internalType": "uint256",
          "name": "_secretNumber",
          "type": "uint256"
        }
      ],
      "name": "updateSecretNumber",
      "outputs": [],
      "stateMutability": "nonpayable",
      "type": "function"
    },
    {
      "inputs": [
        {
          "internalType": "string",
          "name": "_secretPhrase",
          "type": "string"
        }
      ],
      "name": "updateSecretPhraseSauze",
      "outputs": [],
      "stateMutability": "nonpayable",
      "type": "function"
    }
  ],
  "bytecode": {
    "object": "0x60e0604052603860808181529062000b8e60a0396001906200002290826200018c565b50600a600255604080518082018252611b3981528151808301909252600982526864656578206e75747360b81b60208381019190915281018290528051600390815590916004906200007590826200018c565b5050503480156200008557600080fd5b50620000913362000097565b62000258565b600080546001600160a01b038381166001600160a01b0319831681178455604051919092169283917f8be0079c531659141344cd1fd0a4f28419497f9722a3daafe3b4186f6b6457e09190a35050565b634e487b7160e01b600052604160045260246000fd5b600181811c908216806200011257607f821691505b6020821081036200013357634e487b7160e01b600052602260045260246000fd5b50919050565b601f8211156200018757600081815260208120601f850160051c81016020861015620001625750805b601f850160051c820191505b8181101562000183578281556001016200016e565b5050505b505050565b81516001600160401b03811115620001a857620001a8620000e7565b620001c081620001b98454620000fd565b8462000139565b602080601f831160018114620001f85760008415620001df5750858301515b600019600386901b1c1916600185901b17855562000183565b600085815260208120601f198616915b82811015620002295788860151825594840194600190910190840162000208565b5085821015620002485787850151600019600388901b60f8161c191681555b5050505050600190811b01905550565b61092680620002686000396000f3fe608060405234801561001057600080fd5b50600436106100b45760003560e01c8063a997307e11610071578063a997307e14610138578063c36604ed1461014a578063ec17ec6714610153578063ec9d1fce14610166578063f2fde38b1461016e578063fdb0db831461018157600080fd5b8063378963ac146100b95780633e7cc591146100ce5780635df6697a146100f8578063715018a61461010d5780638da5cb5b14610115578063959ab7b314610130575b600080fd5b6100cc6100c736600461055d565b600255565b005b6100e16100dc366004610619565b610197565b6040516100ef9291906106ec565b60405180910390f35b6101006101bd565b6040516100ef919061070e565b6100cc61024f565b6000546040516001600160a01b0390911681526020016100ef565b610100610263565b6002545b6040519081526020016100ef565b61013c60025481565b6100cc610161366004610728565b6102f1565b6100e1610301565b6100cc61017c366004610765565b61039e565b61018961041c565b6040516100ef92919061078e565b805160208201516003828155909190839060046101b48582610830565b50905050915091565b6060600180546101cc906107a7565b80601f01602080910402602001604051908101604052809291908181526020018280546101f8906107a7565b80156102455780601f1061021a57610100808354040283529160200191610245565b820191906000526020600020905b81548152906001019060200180831161022857829003601f168201915b5050505050905090565b6102576104b3565b610261600061050d565b565b60018054610270906107a7565b80601f016020809104026020016040519081016040528092919081815260200182805461029c906107a7565b80156102e95780601f106102be576101008083540402835291602001916102e9565b820191906000526020600020905b8154815290600101906020018083116102cc57829003601f168201915b505050505081565b60016102fd8282610830565b5050565b606060006001600254818054610316906107a7565b80601f0160208091040260200160405190810160405280929190818152602001828054610342906107a7565b801561038f5780601f106103645761010080835404028352916020019161038f565b820191906000526020600020905b81548152906001019060200180831161037257829003601f168201915b50505050509150915091509091565b6103a66104b3565b6001600160a01b0381166104105760405162461bcd60e51b815260206004820152602660248201527f4f776e61626c653a206e6577206f776e657220697320746865207a65726f206160448201526564647265737360d01b60648201526084015b60405180910390fd5b6104198161050d565b50565b6003805460048054919291610430906107a7565b80601f016020809104026020016040519081016040528092919081815260200182805461045c906107a7565b80156104a95780601f1061047e576101008083540402835291602001916104a9565b820191906000526020600020905b81548152906001019060200180831161048c57829003601f168201915b5050505050905082565b6000546001600160a01b031633146102615760405162461bcd60e51b815260206004820181905260248201527f4f776e61626c653a2063616c6c6572206973206e6f7420746865206f776e65726044820152606401610407565b600080546001600160a01b038381166001600160a01b0319831681178455604051919092169283917f8be0079c531659141344cd1fd0a4f28419497f9722a3daafe3b4186f6b6457e09190a35050565b60006020828403121561056f57600080fd5b5035919050565b634e487b7160e01b600052604160045260246000fd5b600082601f83011261059d57600080fd5b813567ffffffffffffffff808211156105b8576105b8610576565b604051601f8301601f19908116603f011681019082821181831017156105e0576105e0610576565b816040528381528660208588010111156105f957600080fd5b836020870160208301376000602085830101528094505050505092915050565b60006020828403121561062b57600080fd5b813567ffffffffffffffff8082111561064357600080fd5b908301906040828603121561065757600080fd5b60405160408101818110838211171561067257610672610576565b6040528235815260208301358281111561068b57600080fd5b6106978782860161058c565b60208301525095945050505050565b6000815180845260005b818110156106cc576020818501810151868301820152016106b0565b506000602082860101526020601f19601f83011685010191505092915050565b6040815260006106ff60408301856106a6565b90508260208301529392505050565b60208152600061072160208301846106a6565b9392505050565b60006020828403121561073a57600080fd5b813567ffffffffffffffff81111561075157600080fd5b61075d8482850161058c565b949350505050565b60006020828403121561077757600080fd5b81356001600160a01b038116811461072157600080fd5b82815260406020820152600061075d60408301846106a6565b600181811c908216806107bb57607f821691505b6020821081036107db57634e487b7160e01b600052602260045260246000fd5b50919050565b601f82111561082b57600081815260208120601f850160051c810160208610156108085750805b601f850160051c820191505b8181101561082757828155600101610814565b5050505b505050565b815167ffffffffffffffff81111561084a5761084a610576565b61085e8161085884546107a7565b846107e1565b602080601f831160018114610893576000841561087b5750858301515b600019600386901b1c1916600185901b178555610827565b600085815260208120601f198616915b828110156108c2578886015182559484019460019091019084016108a3565b50858210156108e05787850151600019600388901b60f8161c191681555b5050505050600190811b0190555056fea2646970667358221220492923ff6e808d4ad0f301d3dbbb36c8ae7bc5a0815fa6e5f4a990371f677b6764736f6c6343000812003373617563652076657279207375706572206475706572207665727920756c747261206d656761206973207468652073757065722062657374",
    "linkReferences": {}
  },
  "methodIdentifiers": {
    "getSaucesNumber()": "a997307e",
    "getSecretNumberAndPhrase()": "ec9d1fce",
    "getSecretPhrase()": "5df6697a",
    "owner()": "8da5cb5b",
    "renounceOwnership()": "715018a6",
    "saucesSecretPhrase()": "959ab7b3",
    "secretInStorage()": "fdb0db83",
    "secretNumber()": "c36604ed",
    "transferOwnership(address)": "f2fde38b",
    "updateSecretInStorage((uint256,string))": "3e7cc591",
    "updateSecretNumber(uint256)": "378963ac",
    "updateSecretPhraseSauze(string)": "ec17ec67"
  },
  "id": 2
}