{
  "abi": [
    {
      "anonymous": false,
      "inputs": [
        {
          "indexed": true,
          "internalType": "address",
          "name": "previousOwner",
          "type": "address"
        },
        {
          "indexed": true,
          "internalType": "address",
          "name": "newOwner",
          "type": "address"
        }
      ],
      "name": "OwnershipTransferred",
      "type": "event"
    },
    {
      "inputs": [],
      "name": "getSecretNumber",
      "outputs": [
        {
          "internalType": "uint256",
          "name": "",
          "type": "uint256"
        }
      ],
      "stateMutability": "view",
      "type": "function"
    },
    {
      "inputs": [],
      "name": "getSecretNumberAndPhrase",
      "outputs": [
        {
          "internalType": "string",
          "name": "_secretPhrase",
          "type": "string"
        },
        {
          "internalType": "uint256",
          "name": "_secretNumber",
          "type": "uint256"
        }
      ],
      "stateMutability": "view",
      "type": "function"
    },
    {
      "inputs": [],
      "name": "getSecretPhrase",
      "outputs": [
        {
          "internalType": "string",
          "name": "_secretPhrase",
          "type": "string"
        }
      ],
      "stateMutability": "view",
      "type": "function"
    },
    {
      "inputs": [],
      "name": "owner",
      "outputs": [
        {
          "internalType": "address",
          "name": "",
          "type": "address"
        }
      ],
      "stateMutability": "view",
      "type": "function"
    },
    {
      "inputs": [],
      "name": "renounceOwnership",
      "outputs": [],
      "stateMutability": "nonpayable",
      "type": "function"
    },
    {
      "inputs": [],
      "name": "secretNumber",
      "outputs": [
        {
          "internalType": "uint256",
          "name": "",
          "type": "uint256"
        }
      ],
      "stateMutability": "view",
      "type": "function"
    },
    {
      "inputs": [],
      "name": "secretPhrase",
      "outputs": [
        {
          "internalType": "string",
          "name": "",
          "type": "string"
        }
      ],
      "stateMutability": "view",
      "type": "function"
    },
    {
      "inputs": [
        {
          "internalType": "address",
          "name": "newOwner",
          "type": "address"
        }
      ],
      "name": "transferOwnership",
      "outputs": [],
      "stateMutability": "nonpayable",
      "type": "function"
    },
    {
      "inputs": [
        {
          "internalType": "string",
          "name": "_secretPhrase",
          "type": "string"
        }
      ],
      "name": "updateNumber",
      "outputs": [],
      "stateMutability": "nonpayable",
      "type": "function"
    },
    {
      "inputs": [
        {
          "internalType": "uint256",
          "name": "_secretNumber",
          "type": "uint256"
        }
      ],
      "name": "updateSecretNumber",
      "outputs": [],
      "stateMutability": "nonpayable",
      "type": "function"
    }
  ],
  "bytecode": {
    "object": "0x60c0604052600760809081526630b9b23339b23360c91b60a0526001906100269082610136565b50606360025534801561003857600080fd5b5061004233610047565b6101f5565b600080546001600160a01b038381166001600160a01b0319831681178455604051919092169283917f8be0079c531659141344cd1fd0a4f28419497f9722a3daafe3b4186f6b6457e09190a35050565b634e487b7160e01b600052604160045260246000fd5b600181811c908216806100c157607f821691505b6020821081036100e157634e487b7160e01b600052602260045260246000fd5b50919050565b601f82111561013157600081815260208120601f850160051c8101602086101561010e5750805b601f850160051c820191505b8181101561012d5782815560010161011a565b5050505b505050565b81516001600160401b0381111561014f5761014f610097565b6101638161015d84546100ad565b846100e7565b602080601f83116001811461019857600084156101805750858301515b600019600386901b1c1916600185901b17855561012d565b600085815260208120601f198616915b828110156101c7578886015182559484019460019091019084016101a8565b50858210156101e55787850151600019600388901b60f8161c191681555b5050505050600190811b01905550565b61076b806102046000396000f3fe608060405234801561001057600080fd5b506004361061009e5760003560e01c80638d5e5eda116100665780638d5e5eda146100f85780638da5cb5b1461010b578063c36604ed14610126578063ec9d1fce1461012f578063f2fde38b1461014557600080fd5b80633356a758146100a3578063378963ac146100c15780635df6697a146100d6578063715018a6146100de57806384c1d639146100e6575b600080fd5b6100ab610158565b6040516100b891906104a7565b60405180910390f35b6100d46100cf3660046104c1565b600255565b005b6100ab6101e6565b6100d4610278565b6002545b6040519081526020016100b8565b6100d46101063660046104f0565b61028c565b6000546040516001600160a01b0390911681526020016100b8565b6100ea60025481565b61013761029c565b6040516100b89291906105a1565b6100d46101533660046105c3565b610339565b60018054610165906105ec565b80601f0160208091040260200160405190810160405280929190818152602001828054610191906105ec565b80156101de5780601f106101b3576101008083540402835291602001916101de565b820191906000526020600020905b8154815290600101906020018083116101c157829003601f168201915b505050505081565b6060600180546101f5906105ec565b80601f0160208091040260200160405190810160405280929190818152602001828054610221906105ec565b801561026e5780601f106102435761010080835404028352916020019161026e565b820191906000526020600020905b81548152906001019060200180831161025157829003601f168201915b5050505050905090565b6102806103b7565b61028a6000610411565b565b60016102988282610675565b5050565b6060600060016002548180546102b1906105ec565b80601f01602080910402602001604051908101604052809291908181526020018280546102dd906105ec565b801561032a5780601f106102ff5761010080835404028352916020019161032a565b820191906000526020600020905b81548152906001019060200180831161030d57829003601f168201915b50505050509150915091509091565b6103416103b7565b6001600160a01b0381166103ab5760405162461bcd60e51b815260206004820152602660248201527f4f776e61626c653a206e6577206f776e657220697320746865207a65726f206160448201526564647265737360d01b60648201526084015b60405180910390fd5b6103b481610411565b50565b6000546001600160a01b0316331461028a5760405162461bcd60e51b815260206004820181905260248201527f4f776e61626c653a2063616c6c6572206973206e6f7420746865206f776e657260448201526064016103a2565b600080546001600160a01b038381166001600160a01b0319831681178455604051919092169283917f8be0079c531659141344cd1fd0a4f28419497f9722a3daafe3b4186f6b6457e09190a35050565b6000815180845260005b818110156104875760208185018101518683018201520161046b565b506000602082860101526020601f19601f83011685010191505092915050565b6020815260006104ba6020830184610461565b9392505050565b6000602082840312156104d357600080fd5b5035919050565b634e487b7160e01b600052604160045260246000fd5b60006020828403121561050257600080fd5b813567ffffffffffffffff8082111561051a57600080fd5b818401915084601f83011261052e57600080fd5b813581811115610540576105406104da565b604051601f8201601f19908116603f01168101908382118183101715610568576105686104da565b8160405282815287602084870101111561058157600080fd5b826020860160208301376000928101602001929092525095945050505050565b6040815260006105b46040830185610461565b90508260208301529392505050565b6000602082840312156105d557600080fd5b81356001600160a01b03811681146104ba57600080fd5b600181811c9082168061060057607f821691505b60208210810361062057634e487b7160e01b600052602260045260246000fd5b50919050565b601f82111561067057600081815260208120601f850160051c8101602086101561064d5750805b601f850160051c820191505b8181101561066c57828155600101610659565b5050505b505050565b815167ffffffffffffffff81111561068f5761068f6104da565b6106a38161069d84546105ec565b84610626565b602080601f8311600181146106d857600084156106c05750858301515b600019600386901b1c1916600185901b17855561066c565b600085815260208120601f198616915b82811015610707578886015182559484019460019091019084016106e8565b50858210156107255787850151600019600388901b60f8161c191681555b5050505050600190811b0190555056fea26469706673582212201a9031eb0b305b088d36313c43234697b26addf2e0d1de028744a6453e68f8ab64736f6c63430008120033",
    "linkReferences": {}
  },
  "methodIdentifiers": {
    "getSecretNumber()": "84c1d639",
    "getSecretNumberAndPhrase()": "ec9d1fce",
    "getSecretPhrase()": "5df6697a",
    "owner()": "8da5cb5b",
    "renounceOwnership()": "715018a6",
    "secretNumber()": "c36604ed",
    "secretPhrase()": "3356a758",
    "transferOwnership(address)": "f2fde38b",
    "updateNumber(string)": "8d5e5eda",
    "updateSecretNumber(uint256)": "378963ac"
  },
  "id": 2
}