{
  "abi": [
    {
      "anonymous": false,
      "inputs": [
        {
          "indexed": true,
          "internalType": "address",
          "name": "previousOwner",
          "type": "address"
        },
        {
          "indexed": true,
          "internalType": "address",
          "name": "newOwner",
          "type": "address"
        }
      ],
      "name": "OwnershipTransferred",
      "type": "event"
    },
    {
      "inputs": [],
      "name": "getSecretNumberAndPhrase",
      "outputs": [
        {
          "internalType": "string",
          "name": "_secretPhrase",
          "type": "string"
        },
        {
          "internalType": "uint256",
          "name": "_secretNumber",
          "type": "uint256"
        }
      ],
      "stateMutability": "view",
      "type": "function"
    },
    {
      "inputs": [],
      "name": "getSecretPhrase",
      "outputs": [
        {
          "internalType": "string",
          "name": "_secretPhrase",
          "type": "string"
        }
      ],
      "stateMutability": "view",
      "type": "function"
    },
    {
      "inputs": [],
      "name": "getTysNumber",
      "outputs": [
        {
          "internalType": "uint256",
          "name": "",
          "type": "uint256"
        }
      ],
      "stateMutability": "view",
      "type": "function"
    },
    {
      "inputs": [],
      "name": "owner",
      "outputs": [
        {
          "internalType": "address",
          "name": "",
          "type": "address"
        }
      ],
      "stateMutability": "view",
      "type": "function"
    },
    {
      "inputs": [],
      "name": "renounceOwnership",
      "outputs": [],
      "stateMutability": "nonpayable",
      "type": "function"
    },
    {
      "inputs": [],
      "name": "secretInStorage",
      "outputs": [
        {
          "internalType": "uint256",
          "name": "secretNumber",
          "type": "uint256"
        },
        {
          "internalType": "string",
          "name": "secretPrase",
          "type": "string"
        }
      ],
      "stateMutability": "view",
      "type": "function"
    },
    {
      "inputs": [],
      "name": "secretNumber",
      "outputs": [
        {
          "internalType": "uint256",
          "name": "",
          "type": "uint256"
        }
      ],
      "stateMutability": "view",
      "type": "function"
    },
    {
      "inputs": [
        {
          "internalType": "address",
          "name": "newOwner",
          "type": "address"
        }
      ],
      "name": "transferOwnership",
      "outputs": [],
      "stateMutability": "nonpayable",
      "type": "function"
    },
    {
      "inputs": [],
      "name": "tysSecretPhrase",
      "outputs": [
        {
          "internalType": "string",
          "name": "",
          "type": "string"
        }
      ],
      "stateMutability": "view",
      "type": "function"
    },
    {
      "inputs": [
        {
          "components": [
            {
              "internalType": "uint256",
              "name": "secretNumber",
              "type": "uint256"
            },
            {
              "internalType": "string",
              "name": "secretPrase",
              "type": "string"
            }
          ],
          "internalType": "struct SecretKeeper.SecretStorage",
          "name": "secretParam",
          "type": "tuple"
        }
      ],
      "name": "updateSecretInStorage",
      "outputs": [],
      "stateMutability": "nonpayable",
      "type": "function"
    },
    {
      "inputs": [
        {
          "internalType": "uint256",
          "name": "_secretNumber",
          "type": "uint256"
        }
      ],
      "name": "updateSecretNumber",
      "outputs": [],
      "stateMutability": "nonpayable",
      "type": "function"
    },
    {
      "inputs": [
        {
          "internalType": "string",
          "name": "_secretPhrase",
          "type": "string"
        }
      ],
      "name": "updateSecretPhraseForTy",
      "outputs": [],
      "stateMutability": "nonpayable",
      "type": "function"
    }
  ],
  "bytecode": {
    "object": "0x60c0604052600f60809081526e1d1e481a5cc81b5959d84818dbdbdb608a1b60a05260019061002e908261018d565b506101a4600255604080518082018252611b3981528151808301909252600982526864656578206e75747360b81b6020838101919091528101829052805160039081559091600490610080908261018d565b50505034801561008f57600080fd5b506100993361009e565b61024c565b600080546001600160a01b038381166001600160a01b0319831681178455604051919092169283917f8be0079c531659141344cd1fd0a4f28419497f9722a3daafe3b4186f6b6457e09190a35050565b634e487b7160e01b600052604160045260246000fd5b600181811c9082168061011857607f821691505b60208210810361013857634e487b7160e01b600052602260045260246000fd5b50919050565b601f82111561018857600081815260208120601f850160051c810160208610156101655750805b601f850160051c820191505b8181101561018457828155600101610171565b5050505b505050565b81516001600160401b038111156101a6576101a66100ee565b6101ba816101b48454610104565b8461013e565b602080601f8311600181146101ef57600084156101d75750858301515b600019600386901b1c1916600185901b178555610184565b600085815260208120601f198616915b8281101561021e578886015182559484019460019091019084016101ff565b508582101561023c5787850151600019600388901b60f8161c191681555b5050505050600190811b01905550565b610926806200025c6000396000f3fe608060405234801561001057600080fd5b50600436106100b45760003560e01c80638da5cb5b116100715780638da5cb5b14610122578063c36604ed1461013d578063cec5631414610154578063ec9d1fce1461015c578063f2fde38b14610172578063fdb0db831461018557600080fd5b8063043c8a95146100b957806306418aa3146100d7578063378963ac146100ec5780633e7cc591146100ff5780635df6697a14610112578063715018a61461011a575b600080fd5b6100c161019b565b6040516100ce91906105a3565b60405180910390f35b6100ea6100e5366004610660565b610229565b005b6100ea6100fa36600461069d565b600255565b6100ea61010d3660046106b6565b610239565b6100c161025b565b6100ea6102ed565b6000546040516001600160a01b0390911681526020016100ce565b61014660025481565b6040519081526020016100ce565b600254610146565b610164610301565b6040516100ce929190610743565b6100ea610180366004610765565b61039e565b61018d61041c565b6040516100ce92919061078e565b600180546101a8906107a7565b80601f01602080910402602001604051908101604052809291908181526020018280546101d4906107a7565b80156102215780601f106101f657610100808354040283529160200191610221565b820191906000526020600020905b81548152906001019060200180831161020457829003601f168201915b505050505081565b60016102358282610830565b5050565b8051600390815560208201518291906004906102559082610830565b50505050565b60606001805461026a906107a7565b80601f0160208091040260200160405190810160405280929190818152602001828054610296906107a7565b80156102e35780601f106102b8576101008083540402835291602001916102e3565b820191906000526020600020905b8154815290600101906020018083116102c657829003601f168201915b5050505050905090565b6102f56104b3565b6102ff600061050d565b565b606060006001600254818054610316906107a7565b80601f0160208091040260200160405190810160405280929190818152602001828054610342906107a7565b801561038f5780601f106103645761010080835404028352916020019161038f565b820191906000526020600020905b81548152906001019060200180831161037257829003601f168201915b50505050509150915091509091565b6103a66104b3565b6001600160a01b0381166104105760405162461bcd60e51b815260206004820152602660248201527f4f776e61626c653a206e6577206f776e657220697320746865207a65726f206160448201526564647265737360d01b60648201526084015b60405180910390fd5b6104198161050d565b50565b6003805460048054919291610430906107a7565b80601f016020809104026020016040519081016040528092919081815260200182805461045c906107a7565b80156104a95780601f1061047e576101008083540402835291602001916104a9565b820191906000526020600020905b81548152906001019060200180831161048c57829003601f168201915b5050505050905082565b6000546001600160a01b031633146102ff5760405162461bcd60e51b815260206004820181905260248201527f4f776e61626c653a2063616c6c6572206973206e6f7420746865206f776e65726044820152606401610407565b600080546001600160a01b038381166001600160a01b0319831681178455604051919092169283917f8be0079c531659141344cd1fd0a4f28419497f9722a3daafe3b4186f6b6457e09190a35050565b6000815180845260005b8181101561058357602081850181015186830182015201610567565b506000602082860101526020601f19601f83011685010191505092915050565b6020815260006105b6602083018461055d565b9392505050565b634e487b7160e01b600052604160045260246000fd5b600082601f8301126105e457600080fd5b813567ffffffffffffffff808211156105ff576105ff6105bd565b604051601f8301601f19908116603f01168101908282118183101715610627576106276105bd565b8160405283815286602085880101111561064057600080fd5b836020870160208301376000602085830101528094505050505092915050565b60006020828403121561067257600080fd5b813567ffffffffffffffff81111561068957600080fd5b610695848285016105d3565b949350505050565b6000602082840312156106af57600080fd5b5035919050565b6000602082840312156106c857600080fd5b813567ffffffffffffffff808211156106e057600080fd5b90830190604082860312156106f457600080fd5b60405160408101818110838211171561070f5761070f6105bd565b6040528235815260208301358281111561072857600080fd5b610734878286016105d3565b60208301525095945050505050565b604081526000610756604083018561055d565b90508260208301529392505050565b60006020828403121561077757600080fd5b81356001600160a01b03811681146105b657600080fd5b828152604060208201526000610695604083018461055d565b600181811c908216806107bb57607f821691505b6020821081036107db57634e487b7160e01b600052602260045260246000fd5b50919050565b601f82111561082b57600081815260208120601f850160051c810160208610156108085750805b601f850160051c820191505b8181101561082757828155600101610814565b5050505b505050565b815167ffffffffffffffff81111561084a5761084a6105bd565b61085e8161085884546107a7565b846107e1565b602080601f831160018114610893576000841561087b5750858301515b600019600386901b1c1916600185901b178555610827565b600085815260208120601f198616915b828110156108c2578886015182559484019460019091019084016108a3565b50858210156108e05787850151600019600388901b60f8161c191681555b5050505050600190811b0190555056fea264697066735822122044f4ce90043e77941312f9a9c734ff5a42330f382d5ff2182d91a1c568f4f9b764736f6c63430008120033",
    "linkReferences": {}
  },
  "methodIdentifiers": {
    "getSecretNumberAndPhrase()": "ec9d1fce",
    "getSecretPhrase()": "5df6697a",
    "getTysNumber()": "cec56314",
    "owner()": "8da5cb5b",
    "renounceOwnership()": "715018a6",
    "secretInStorage()": "fdb0db83",
    "secretNumber()": "c36604ed",
    "transferOwnership(address)": "f2fde38b",
    "tysSecretPhrase()": "043c8a95",
    "updateSecretInStorage((uint256,string))": "3e7cc591",
    "updateSecretNumber(uint256)": "378963ac",
    "updateSecretPhraseForTy(string)": "06418aa3"
  },
  "id": 2
}