{
  "abi": [
    {
      "inputs": [],
      "name": "getSecretNumber",
      "outputs": [
        {
          "internalType": "uint256",
          "name": "",
          "type": "uint256"
        }
      ],
      "stateMutability": "view",
      "type": "function"
    },
    {
      "inputs": [],
      "name": "getSecretNumberAndPhrase",
      "outputs": [
        {
          "internalType": "string",
          "name": "_secretPhrase",
          "type": "string"
        },
        {
          "internalType": "uint256",
          "name": "_secretNumber",
          "type": "uint256"
        }
      ],
      "stateMutability": "view",
      "type": "function"
    },
    {
      "inputs": [],
      "name": "getSecretPhraseForJoe",
      "outputs": [
        {
          "internalType": "string",
          "name": "_secretPhrase",
          "type": "string"
        }
      ],
      "stateMutability": "view",
      "type": "function"
    },
    {
      "inputs": [
        {
          "internalType": "string",
          "name": "_secretPhrase",
          "type": "string"
        }
      ],
      "name": "updateJoesLeastrFavNumber",
      "outputs": [],
      "stateMutability": "nonpayable",
      "type": "function"
    },
    {
      "inputs": [
        {
          "internalType": "uint256",
          "name": "_secretNumber",
          "type": "uint256"
        }
      ],
      "name": "updateSecretNumber",
      "outputs": [],
      "stateMutability": "nonpayable",
      "type": "function"
    }
  ],
  "bytecode": {
    "object": "0x60c0604052600a60809081526968656c6f2068656e6c6f60b01b60a05260009061002990826100e0565b50600c60015534801561003b57600080fd5b5061019f565b634e487b7160e01b600052604160045260246000fd5b600181811c9082168061006b57607f821691505b60208210810361008b57634e487b7160e01b600052602260045260246000fd5b50919050565b601f8211156100db57600081815260208120601f850160051c810160208610156100b85750805b601f850160051c820191505b818110156100d7578281556001016100c4565b5050505b505050565b81516001600160401b038111156100f9576100f9610041565b61010d816101078454610057565b84610091565b602080601f831160018114610142576000841561012a5750858301515b600019600386901b1c1916600185901b1785556100d7565b600085815260208120601f198616915b8281101561017157888601518255948401946001909101908401610152565b508582101561018f5787850151600019600388901b60f8161c191681555b5050505050600190811b01905550565b6104e4806101ae6000396000f3fe608060405234801561001057600080fd5b50600436106100575760003560e01c8063378963ac1461005c57806384c1d63914610071578063a1baeb9214610087578063e1b1c2971461009a578063ec9d1fce146100af575b600080fd5b61006f61006a366004610203565b600155565b005b6001546040519081526020015b60405180910390f35b61006f610095366004610232565b6100c5565b6100a26100d5565b60405161007e9190610329565b6100b7610167565b60405161007e929190610343565b60006100d182826103ee565b5050565b6060600080546100e490610365565b80601f016020809104026020016040519081016040528092919081815260200182805461011090610365565b801561015d5780601f106101325761010080835404028352916020019161015d565b820191906000526020600020905b81548152906001019060200180831161014057829003601f168201915b5050505050905090565b606060008060015481805461017b90610365565b80601f01602080910402602001604051908101604052809291908181526020018280546101a790610365565b80156101f45780601f106101c9576101008083540402835291602001916101f4565b820191906000526020600020905b8154815290600101906020018083116101d757829003601f168201915b50505050509150915091509091565b60006020828403121561021557600080fd5b5035919050565b634e487b7160e01b600052604160045260246000fd5b60006020828403121561024457600080fd5b813567ffffffffffffffff8082111561025c57600080fd5b818401915084601f83011261027057600080fd5b8135818111156102825761028261021c565b604051601f8201601f19908116603f011681019083821181831017156102aa576102aa61021c565b816040528281528760208487010111156102c357600080fd5b826020860160208301376000928101602001929092525095945050505050565b6000815180845260005b81811015610309576020818501810151868301820152016102ed565b506000602082860101526020601f19601f83011685010191505092915050565b60208152600061033c60208301846102e3565b9392505050565b60408152600061035660408301856102e3565b90508260208301529392505050565b600181811c9082168061037957607f821691505b60208210810361039957634e487b7160e01b600052602260045260246000fd5b50919050565b601f8211156103e957600081815260208120601f850160051c810160208610156103c65750805b601f850160051c820191505b818110156103e5578281556001016103d2565b5050505b505050565b815167ffffffffffffffff8111156104085761040861021c565b61041c816104168454610365565b8461039f565b602080601f83116001811461045157600084156104395750858301515b600019600386901b1c1916600185901b1785556103e5565b600085815260208120601f198616915b8281101561048057888601518255948401946001909101908401610461565b508582101561049e5787850151600019600388901b60f8161c191681555b5050505050600190811b0190555056fea2646970667358221220b26b91e86ac15bc0a446cbcc646036c75985c04be2d7979eff24f2c818db784c64736f6c63430008120033",
    "linkReferences": {}
  },
  "methodIdentifiers": {
    "getSecretNumber()": "84c1d639",
    "getSecretNumberAndPhrase()": "ec9d1fce",
    "getSecretPhraseForJoe()": "e1b1c297",
    "updateJoesLeastrFavNumber(string)": "a1baeb92",
    "updateSecretNumber(uint256)": "378963ac"
  },
  "id": 0
}