{
  "abi": [
    {
      "anonymous": false,
      "inputs": [
        {
          "indexed": true,
          "internalType": "address",
          "name": "previousOwner",
          "type": "address"
        },
        {
          "indexed": true,
          "internalType": "address",
          "name": "newOwner",
          "type": "address"
        }
      ],
      "name": "OwnershipTransferred",
      "type": "event"
    },
    {
      "inputs": [],
      "name": "getMaisiesNumber",
      "outputs": [
        {
          "internalType": "uint256",
          "name": "",
          "type": "uint256"
        }
      ],
      "stateMutability": "view",
      "type": "function"
    },
    {
      "inputs": [],
      "name": "getSecretNumberAndPhrase",
      "outputs": [
        {
          "internalType": "string",
          "name": "_secretPhrase",
          "type": "string"
        },
        {
          "internalType": "uint256",
          "name": "_secretNumber",
          "type": "uint256"
        }
      ],
      "stateMutability": "view",
      "type": "function"
    },
    {
      "inputs": [],
      "name": "getSecretPhrase",
      "outputs": [
        {
          "internalType": "string",
          "name": "_secretPhrase",
          "type": "string"
        }
      ],
      "stateMutability": "view",
      "type": "function"
    },
    {
      "inputs": [],
      "name": "maisiesHatersSecretPhrase",
      "outputs": [
        {
          "internalType": "string",
          "name": "",
          "type": "string"
        }
      ],
      "stateMutability": "view",
      "type": "function"
    },
    {
      "inputs": [],
      "name": "owner",
      "outputs": [
        {
          "internalType": "address",
          "name": "",
          "type": "address"
        }
      ],
      "stateMutability": "view",
      "type": "function"
    },
    {
      "inputs": [],
      "name": "renounceOwnership",
      "outputs": [],
      "stateMutability": "nonpayable",
      "type": "function"
    },
    {
      "inputs": [],
      "name": "secretInStorage",
      "outputs": [
        {
          "internalType": "uint256",
          "name": "secretNumber",
          "type": "uint256"
        },
        {
          "internalType": "string",
          "name": "secretPrase",
          "type": "string"
        }
      ],
      "stateMutability": "view",
      "type": "function"
    },
    {
      "inputs": [],
      "name": "secretNumber",
      "outputs": [
        {
          "internalType": "uint256",
          "name": "",
          "type": "uint256"
        }
      ],
      "stateMutability": "view",
      "type": "function"
    },
    {
      "inputs": [
        {
          "internalType": "address",
          "name": "newOwner",
          "type": "address"
        }
      ],
      "name": "transferOwnership",
      "outputs": [],
      "stateMutability": "nonpayable",
      "type": "function"
    },
    {
      "inputs": [
        {
          "components": [
            {
              "internalType": "uint256",
              "name": "secretNumber",
              "type": "uint256"
            },
            {
              "internalType": "string",
              "name": "secretPrase",
              "type": "string"
            }
          ],
          "internalType": "struct SecretKeeper.SecretStorage",
          "name": "secretParam",
          "type": "tuple"
        }
      ],
      "name": "updateSecretInStorage",
      "outputs": [
        {
          "internalType": "string",
          "name": "_secretPhrase",
          "type": "string"
        },
        {
          "internalType": "uint256",
          "name": "_secretNumber",
          "type": "uint256"
        }
      ],
      "stateMutability": "nonpayable",
      "type": "function"
    },
    {
      "inputs": [
        {
          "internalType": "uint256",
          "name": "_secretNumber",
          "type": "uint256"
        }
      ],
      "name": "updateSecretNumber",
      "outputs": [],
      "stateMutability": "nonpayable",
      "type": "function"
    },
    {
      "inputs": [
        {
          "internalType": "string",
          "name": "_secretPhrase",
          "type": "string"
        }
      ],
      "name": "updateSecretPhraseForMaisiesHaters",
      "outputs": [],
      "stateMutability": "nonpayable",
      "type": "function"
    },
    {
      "inputs": [
        {
          "components": [
            {
              "internalType": "uint256",
              "name": "secretNumber",
              "type": "uint256"
            },
            {
              "internalType": "string",
              "name": "secretPrase",
              "type": "string"
            }
          ],
          "internalType": "struct SecretKeeper.SecretStorage",
          "name": "secretParam",
          "type": "tuple"
        }
      ],
      "name": "writeWith1Return",
      "outputs": [
        {
          "internalType": "string",
          "name": "_secretPhrase",
          "type": "string"
        }
      ],
      "stateMutability": "nonpayable",
      "type": "function"
    }
  ],
  "bytecode": {
    "object": "0x610100604052604460808181529062000be760a03960019062000023908262000190565b50600a600255604080518082018252611b3981528151808301909252600c82526b6d616973696573206e75747360a01b602083810191909152810182905280516003908155909160049062000079908262000190565b5050503480156200008957600080fd5b5062000095336200009b565b6200025c565b600080546001600160a01b038381166001600160a01b0319831681178455604051919092169283917f8be0079c531659141344cd1fd0a4f28419497f9722a3daafe3b4186f6b6457e09190a35050565b634e487b7160e01b600052604160045260246000fd5b600181811c908216806200011657607f821691505b6020821081036200013757634e487b7160e01b600052602260045260246000fd5b50919050565b601f8211156200018b57600081815260208120601f850160051c81016020861015620001665750805b601f850160051c820191505b81811015620001875782815560010162000172565b5050505b505050565b81516001600160401b03811115620001ac57620001ac620000eb565b620001c481620001bd845462000101565b846200013d565b602080601f831160018114620001fc5760008415620001e35750858301515b600019600386901b1c1916600185901b17855562000187565b600085815260208120601f198616915b828110156200022d578886015182559484019460019091019084016200020c565b50858210156200024c5787850151600019600388901b60f8161c191681555b5050505050600190811b01905550565b61097b806200026c6000396000f3fe608060405234801561001057600080fd5b50600436106100cf5760003560e01c80638da5cb5b1161008c578063ec9d1fce11610066578063ec9d1fce14610190578063f2fde38b14610198578063f7053d4e146101ab578063fdb0db83146101b357600080fd5b80638da5cb5b1461014b578063b5d5192d14610166578063c36604ed1461017957600080fd5b806316fabecc146100d457806323e40cea146100f2578063378963ac146101055780633e7cc5911461011a5780635df6697a1461013b578063715018a614610143575b600080fd5b6100dc6101c9565b6040516100e991906105f8565b60405180910390f35b6100dc6101003660046106b5565b610257565b610118610113366004610742565b600255565b005b61012d6101283660046106b5565b61027a565b6040516100e992919061075b565b6100dc6102a0565b610118610332565b6000546040516001600160a01b0390911681526020016100e9565b61011861017436600461077d565b610346565b61018260025481565b6040519081526020016100e9565b61012d610356565b6101186101a63660046107ba565b6103f3565b600254610182565b6101bb610471565b6040516100e99291906107e3565b600180546101d6906107fc565b80601f0160208091040260200160405190810160405280929190818152602001828054610202906107fc565b801561024f5780601f106102245761010080835404028352916020019161024f565b820191906000526020600020905b81548152906001019060200180831161023257829003601f168201915b505050505081565b602081015181516003908155829060046102718482610885565b50905050919050565b805160208201516003828155909190839060046102978582610885565b50905050915091565b6060600180546102af906107fc565b80601f01602080910402602001604051908101604052809291908181526020018280546102db906107fc565b80156103285780601f106102fd57610100808354040283529160200191610328565b820191906000526020600020905b81548152906001019060200180831161030b57829003601f168201915b5050505050905090565b61033a610508565b6103446000610562565b565b60016103528282610885565b5050565b60606000600160025481805461036b906107fc565b80601f0160208091040260200160405190810160405280929190818152602001828054610397906107fc565b80156103e45780601f106103b9576101008083540402835291602001916103e4565b820191906000526020600020905b8154815290600101906020018083116103c757829003601f168201915b50505050509150915091509091565b6103fb610508565b6001600160a01b0381166104655760405162461bcd60e51b815260206004820152602660248201527f4f776e61626c653a206e6577206f776e657220697320746865207a65726f206160448201526564647265737360d01b60648201526084015b60405180910390fd5b61046e81610562565b50565b6003805460048054919291610485906107fc565b80601f01602080910402602001604051908101604052809291908181526020018280546104b1906107fc565b80156104fe5780601f106104d3576101008083540402835291602001916104fe565b820191906000526020600020905b8154815290600101906020018083116104e157829003601f168201915b5050505050905082565b6000546001600160a01b031633146103445760405162461bcd60e51b815260206004820181905260248201527f4f776e61626c653a2063616c6c6572206973206e6f7420746865206f776e6572604482015260640161045c565b600080546001600160a01b038381166001600160a01b0319831681178455604051919092169283917f8be0079c531659141344cd1fd0a4f28419497f9722a3daafe3b4186f6b6457e09190a35050565b6000815180845260005b818110156105d8576020818501810151868301820152016105bc565b506000602082860101526020601f19601f83011685010191505092915050565b60208152600061060b60208301846105b2565b9392505050565b634e487b7160e01b600052604160045260246000fd5b600082601f83011261063957600080fd5b813567ffffffffffffffff8082111561065457610654610612565b604051601f8301601f19908116603f0116810190828211818310171561067c5761067c610612565b8160405283815286602085880101111561069557600080fd5b836020870160208301376000602085830101528094505050505092915050565b6000602082840312156106c757600080fd5b813567ffffffffffffffff808211156106df57600080fd5b90830190604082860312156106f357600080fd5b60405160408101818110838211171561070e5761070e610612565b6040528235815260208301358281111561072757600080fd5b61073387828601610628565b60208301525095945050505050565b60006020828403121561075457600080fd5b5035919050565b60408152600061076e60408301856105b2565b90508260208301529392505050565b60006020828403121561078f57600080fd5b813567ffffffffffffffff8111156107a657600080fd5b6107b284828501610628565b949350505050565b6000602082840312156107cc57600080fd5b81356001600160a01b038116811461060b57600080fd5b8281526040602082015260006107b260408301846105b2565b600181811c9082168061081057607f821691505b60208210810361083057634e487b7160e01b600052602260045260246000fd5b50919050565b601f82111561088057600081815260208120601f850160051c8101602086101561085d5750805b601f850160051c820191505b8181101561087c57828155600101610869565b5050505b505050565b815167ffffffffffffffff81111561089f5761089f610612565b6108b3816108ad84546107fc565b84610836565b602080601f8311600181146108e857600084156108d05750858301515b600019600386901b1c1916600185901b17855561087c565b600085815260208120601f198616915b82811015610917578886015182559484019460019091019084016108f8565b50858210156109355787850151600019600388901b60f8161c191681555b5050505050600190811b0190555056fea264697066735822122089b4df74f90f3dfff5c79843ec52f9a77698aa18a75d5f225c4ac5c095617e6264736f6c634300081200336d6169736965204953204e4f542076657279207375706572206475706572207665727920756c747261206d65676120697320746865204e4f542073757065722062657374",
    "linkReferences": {}
  },
  "methodIdentifiers": {
    "getMaisiesNumber()": "f7053d4e",
    "getSecretNumberAndPhrase()": "ec9d1fce",
    "getSecretPhrase()": "5df6697a",
    "maisiesHatersSecretPhrase()": "16fabecc",
    "owner()": "8da5cb5b",
    "renounceOwnership()": "715018a6",
    "secretInStorage()": "fdb0db83",
    "secretNumber()": "c36604ed",
    "transferOwnership(address)": "f2fde38b",
    "updateSecretInStorage((uint256,string))": "3e7cc591",
    "updateSecretNumber(uint256)": "378963ac",
    "updateSecretPhraseForMaisiesHaters(string)": "b5d5192d",
    "writeWith1Return((uint256,string))": "23e40cea"
  },
  "id": 2
}