{
  "abi": [
    {
      "anonymous": false,
      "inputs": [
        {
          "indexed": true,
          "internalType": "address",
          "name": "previousOwner",
          "type": "address"
        },
        {
          "indexed": true,
          "internalType": "address",
          "name": "newOwner",
          "type": "address"
        }
      ],
      "name": "OwnershipTransferred",
      "type": "event"
    },
    {
      "inputs": [],
      "name": "getSecretNumber",
      "outputs": [
        {
          "internalType": "uint256",
          "name": "",
          "type": "uint256"
        }
      ],
      "stateMutability": "view",
      "type": "function"
    },
    {
      "inputs": [],
      "name": "getSecretNumberAndPhrase",
      "outputs": [
        {
          "internalType": "string",
          "name": "_secretPhrase",
          "type": "string"
        },
        {
          "internalType": "uint256",
          "name": "_secretNumber",
          "type": "uint256"
        }
      ],
      "stateMutability": "view",
      "type": "function"
    },
    {
      "inputs": [],
      "name": "getSecretPhrase",
      "outputs": [
        {
          "internalType": "string",
          "name": "_secretPhrase",
          "type": "string"
        }
      ],
      "stateMutability": "view",
      "type": "function"
    },
    {
      "inputs": [],
      "name": "owner",
      "outputs": [
        {
          "internalType": "address",
          "name": "",
          "type": "address"
        }
      ],
      "stateMutability": "view",
      "type": "function"
    },
    {
      "inputs": [],
      "name": "renounceOwnership",
      "outputs": [],
      "stateMutability": "nonpayable",
      "type": "function"
    },
    {
      "inputs": [],
      "name": "secretInStorage",
      "outputs": [
        {
          "internalType": "uint256",
          "name": "secretNumber",
          "type": "uint256"
        },
        {
          "internalType": "string",
          "name": "secretPrase",
          "type": "string"
        }
      ],
      "stateMutability": "view",
      "type": "function"
    },
    {
      "inputs": [],
      "name": "secretNumber",
      "outputs": [
        {
          "internalType": "uint256",
          "name": "",
          "type": "uint256"
        }
      ],
      "stateMutability": "view",
      "type": "function"
    },
    {
      "inputs": [],
      "name": "secretPhrase",
      "outputs": [
        {
          "internalType": "string",
          "name": "",
          "type": "string"
        }
      ],
      "stateMutability": "view",
      "type": "function"
    },
    {
      "inputs": [
        {
          "internalType": "address",
          "name": "newOwner",
          "type": "address"
        }
      ],
      "name": "transferOwnership",
      "outputs": [],
      "stateMutability": "nonpayable",
      "type": "function"
    },
    {
      "inputs": [
        {
          "components": [
            {
              "internalType": "uint256",
              "name": "secretNumber",
              "type": "uint256"
            },
            {
              "internalType": "string",
              "name": "secretPrase",
              "type": "string"
            }
          ],
          "internalType": "struct SecretKeeper.SecretStorage",
          "name": "secretParam",
          "type": "tuple"
        }
      ],
      "name": "updateSecretInStorageForTY",
      "outputs": [],
      "stateMutability": "nonpayable",
      "type": "function"
    },
    {
      "inputs": [
        {
          "internalType": "uint256",
          "name": "_secretNumber",
          "type": "uint256"
        }
      ],
      "name": "updateSecretNumberForTY",
      "outputs": [],
      "stateMutability": "nonpayable",
      "type": "function"
    },
    {
      "inputs": [
        {
          "internalType": "string",
          "name": "_secretPhrase",
          "type": "string"
        }
      ],
      "name": "updateSecretPhrase",
      "outputs": [],
      "stateMutability": "nonpayable",
      "type": "function"
    }
  ],
  "bytecode": {
    "object": "0x60c0604052600a6080908152691d1e481a5cc818dbdbdb60b21b60a052600190610029908261019d565b5062010f2c6002556040805180820182526103f281528151808301909252601882527f73757065722064757065722073656372657420466f72545900000000000000006020838101919091528101829052805160039081559091600490610090908261019d565b50505034801561009f57600080fd5b506100a9336100ae565b61025c565b600080546001600160a01b038381166001600160a01b0319831681178455604051919092169283917f8be0079c531659141344cd1fd0a4f28419497f9722a3daafe3b4186f6b6457e09190a35050565b634e487b7160e01b600052604160045260246000fd5b600181811c9082168061012857607f821691505b60208210810361014857634e487b7160e01b600052602260045260246000fd5b50919050565b601f82111561019857600081815260208120601f850160051c810160208610156101755750805b601f850160051c820191505b8181101561019457828155600101610181565b5050505b505050565b81516001600160401b038111156101b6576101b66100fe565b6101ca816101c48454610114565b8461014e565b602080601f8311600181146101ff57600084156101e75750858301515b600019600386901b1c1916600185901b178555610194565b600085815260208120601f198616915b8281101561022e5788860151825594840194600190910190840161020f565b508582101561024c5787850151600019600388901b60f8161c191681555b5050505050600190811b01905550565b610922806200026c6000396000f3fe608060405234801561001057600080fd5b50600436106100b45760003560e01c8063c36604ed11610071578063c36604ed14610129578063e1f27ab514610132578063ec9d1fce14610145578063f2fde38b1461015b578063fdb0db831461016e578063fe3d35b61461018457600080fd5b806316d1a438146100b95780633356a758146100ce5780635df6697a146100ec578063715018a6146100f457806384c1d639146100fc5780638da5cb5b1461010e575b600080fd5b6100cc6100c73660046105fc565b610197565b005b6100d66101a7565b6040516100e3919061067f565b60405180910390f35b6100d6610235565b6100cc6102c7565b6002545b6040519081526020016100e3565b6000546040516001600160a01b0390911681526020016100e3565b61010060025481565b6100cc610140366004610699565b600255565b61014d6102db565b6040516100e39291906106b2565b6100cc6101693660046106d4565b610378565b6101766103f6565b6040516100e39291906106fd565b6100cc610192366004610716565b61048d565b60016101a3828261082c565b5050565b600180546101b4906107a3565b80601f01602080910402602001604051908101604052809291908181526020018280546101e0906107a3565b801561022d5780601f106102025761010080835404028352916020019161022d565b820191906000526020600020905b81548152906001019060200180831161021057829003601f168201915b505050505081565b606060018054610244906107a3565b80601f0160208091040260200160405190810160405280929190818152602001828054610270906107a3565b80156102bd5780601f10610292576101008083540402835291602001916102bd565b820191906000526020600020905b8154815290600101906020018083116102a057829003601f168201915b5050505050905090565b6102cf6104af565b6102d96000610509565b565b6060600060016002548180546102f0906107a3565b80601f016020809104026020016040519081016040528092919081815260200182805461031c906107a3565b80156103695780601f1061033e57610100808354040283529160200191610369565b820191906000526020600020905b81548152906001019060200180831161034c57829003601f168201915b50505050509150915091509091565b6103806104af565b6001600160a01b0381166103ea5760405162461bcd60e51b815260206004820152602660248201527f4f776e61626c653a206e6577206f776e657220697320746865207a65726f206160448201526564647265737360d01b60648201526084015b60405180910390fd5b6103f381610509565b50565b600380546004805491929161040a906107a3565b80601f0160208091040260200160405190810160405280929190818152602001828054610436906107a3565b80156104835780601f1061045857610100808354040283529160200191610483565b820191906000526020600020905b81548152906001019060200180831161046657829003601f168201915b5050505050905082565b8051600390815560208201518291906004906104a9908261082c565b50505050565b6000546001600160a01b031633146102d95760405162461bcd60e51b815260206004820181905260248201527f4f776e61626c653a2063616c6c6572206973206e6f7420746865206f776e657260448201526064016103e1565b600080546001600160a01b038381166001600160a01b0319831681178455604051919092169283917f8be0079c531659141344cd1fd0a4f28419497f9722a3daafe3b4186f6b6457e09190a35050565b634e487b7160e01b600052604160045260246000fd5b600082601f83011261058057600080fd5b813567ffffffffffffffff8082111561059b5761059b610559565b604051601f8301601f19908116603f011681019082821181831017156105c3576105c3610559565b816040528381528660208588010111156105dc57600080fd5b836020870160208301376000602085830101528094505050505092915050565b60006020828403121561060e57600080fd5b813567ffffffffffffffff81111561062557600080fd5b6106318482850161056f565b949350505050565b6000815180845260005b8181101561065f57602081850181015186830182015201610643565b506000602082860101526020601f19601f83011685010191505092915050565b6020815260006106926020830184610639565b9392505050565b6000602082840312156106ab57600080fd5b5035919050565b6040815260006106c56040830185610639565b90508260208301529392505050565b6000602082840312156106e657600080fd5b81356001600160a01b038116811461069257600080fd5b8281526040602082015260006106316040830184610639565b60006020828403121561072857600080fd5b813567ffffffffffffffff8082111561074057600080fd5b908301906040828603121561075457600080fd5b60405160408101818110838211171561076f5761076f610559565b6040528235815260208301358281111561078857600080fd5b6107948782860161056f565b60208301525095945050505050565b600181811c908216806107b757607f821691505b6020821081036107d757634e487b7160e01b600052602260045260246000fd5b50919050565b601f82111561082757600081815260208120601f850160051c810160208610156108045750805b601f850160051c820191505b8181101561082357828155600101610810565b5050505b505050565b815167ffffffffffffffff81111561084657610846610559565b61085a8161085484546107a3565b846107dd565b602080601f83116001811461088f57600084156108775750858301515b600019600386901b1c1916600185901b178555610823565b600085815260208120601f198616915b828110156108be5788860151825594840194600190910190840161089f565b50858210156108dc5787850151600019600388901b60f8161c191681555b5050505050600190811b0190555056fea2646970667358221220e46f665bdedec1adfd418319f24e5170b81913d742f5c2ed93e6a6a9f0cba2a164736f6c63430008120033",
    "linkReferences": {}
  },
  "methodIdentifiers": {
    "getSecretNumber()": "84c1d639",
    "getSecretNumberAndPhrase()": "ec9d1fce",
    "getSecretPhrase()": "5df6697a",
    "owner()": "8da5cb5b",
    "renounceOwnership()": "715018a6",
    "secretInStorage()": "fdb0db83",
    "secretNumber()": "c36604ed",
    "secretPhrase()": "3356a758",
    "transferOwnership(address)": "f2fde38b",
    "updateSecretInStorageForTY((uint256,string))": "fe3d35b6",
    "updateSecretNumberForTY(uint256)": "e1f27ab5",
    "updateSecretPhrase(string)": "16d1a438"
  },
  "id": 2
}