{
  "abi": [
    {
      "anonymous": false,
      "inputs": [
        {
          "indexed": true,
          "internalType": "address",
          "name": "previousOwner",
          "type": "address"
        },
        {
          "indexed": true,
          "internalType": "address",
          "name": "newOwner",
          "type": "address"
        }
      ],
      "name": "OwnershipTransferred",
      "type": "event"
    },
    {
      "inputs": [],
      "name": "getSecretNumber",
      "outputs": [
        {
          "internalType": "uint256",
          "name": "",
          "type": "uint256"
        }
      ],
      "stateMutability": "view",
      "type": "function"
    },
    {
      "inputs": [],
      "name": "getSecretNumberAndPhrase",
      "outputs": [
        {
          "internalType": "string",
          "name": "_secretPhrase",
          "type": "string"
        },
        {
          "internalType": "uint256",
          "name": "_secretNumber",
          "type": "uint256"
        }
      ],
      "stateMutability": "view",
      "type": "function"
    },
    {
      "inputs": [],
      "name": "getSecretPhrase",
      "outputs": [
        {
          "internalType": "string",
          "name": "_secretPhrase",
          "type": "string"
        }
      ],
      "stateMutability": "view",
      "type": "function"
    },
    {
      "inputs": [],
      "name": "owner",
      "outputs": [
        {
          "internalType": "address",
          "name": "",
          "type": "address"
        }
      ],
      "stateMutability": "view",
      "type": "function"
    },
    {
      "inputs": [],
      "name": "renounceOwnership",
      "outputs": [],
      "stateMutability": "nonpayable",
      "type": "function"
    },
    {
      "inputs": [],
      "name": "secretNumber",
      "outputs": [
        {
          "internalType": "uint256",
          "name": "",
          "type": "uint256"
        }
      ],
      "stateMutability": "view",
      "type": "function"
    },
    {
      "inputs": [],
      "name": "secretPhrase",
      "outputs": [
        {
          "internalType": "string",
          "name": "",
          "type": "string"
        }
      ],
      "stateMutability": "view",
      "type": "function"
    },
    {
      "inputs": [
        {
          "internalType": "address",
          "name": "newOwner",
          "type": "address"
        }
      ],
      "name": "transferOwnership",
      "outputs": [],
      "stateMutability": "nonpayable",
      "type": "function"
    },
    {
      "inputs": [
        {
          "internalType": "uint256",
          "name": "_secretNumber",
          "type": "uint256"
        }
      ],
      "name": "updateSecretNumber",
      "outputs": [],
      "stateMutability": "nonpayable",
      "type": "function"
    },
    {
      "inputs": [
        {
          "internalType": "string",
          "name": "_secretPhrase",
          "type": "string"
        }
      ],
      "name": "updateSecretPhrase",
      "outputs": [],
      "stateMutability": "nonpayable",
      "type": "function"
    }
  ],
  "bytecode": {
    "object": "0x60c0604052600860809081526730b9b23339b2333360c11b60a0526001906100279082610137565b50606460025534801561003957600080fd5b5061004333610048565b6101f6565b600080546001600160a01b038381166001600160a01b0319831681178455604051919092169283917f8be0079c531659141344cd1fd0a4f28419497f9722a3daafe3b4186f6b6457e09190a35050565b634e487b7160e01b600052604160045260246000fd5b600181811c908216806100c257607f821691505b6020821081036100e257634e487b7160e01b600052602260045260246000fd5b50919050565b601f82111561013257600081815260208120601f850160051c8101602086101561010f5750805b601f850160051c820191505b8181101561012e5782815560010161011b565b5050505b505050565b81516001600160401b0381111561015057610150610098565b6101648161015e84546100ae565b846100e8565b602080601f83116001811461019957600084156101815750858301515b600019600386901b1c1916600185901b17855561012e565b600085815260208120601f198616915b828110156101c8578886015182559484019460019091019084016101a9565b50858210156101e65787850151600019600388901b60f8161c191681555b5050505050600190811b01905550565b61076b806102056000396000f3fe608060405234801561001057600080fd5b506004361061009e5760003560e01c806384c1d6391161006657806384c1d639146100f95780638da5cb5b1461010b578063c36604ed14610126578063ec9d1fce1461012f578063f2fde38b1461014557600080fd5b806316d1a438146100a35780633356a758146100b8578063378963ac146100d65780635df6697a146100e9578063715018a6146100f1575b600080fd5b6100b66100b1366004610477565b610158565b005b6100c0610168565b6040516100cd919061056e565b60405180910390f35b6100b66100e4366004610588565b600255565b6100c06101f6565b6100b6610288565b6002545b6040519081526020016100cd565b6000546040516001600160a01b0390911681526020016100cd565b6100fd60025481565b61013761029c565b6040516100cd9291906105a1565b6100b66101533660046105c3565b610339565b60016101648282610675565b5050565b60018054610175906105ec565b80601f01602080910402602001604051908101604052809291908181526020018280546101a1906105ec565b80156101ee5780601f106101c3576101008083540402835291602001916101ee565b820191906000526020600020905b8154815290600101906020018083116101d157829003601f168201915b505050505081565b606060018054610205906105ec565b80601f0160208091040260200160405190810160405280929190818152602001828054610231906105ec565b801561027e5780601f106102535761010080835404028352916020019161027e565b820191906000526020600020905b81548152906001019060200180831161026157829003601f168201915b5050505050905090565b6102906103b7565b61029a6000610411565b565b6060600060016002548180546102b1906105ec565b80601f01602080910402602001604051908101604052809291908181526020018280546102dd906105ec565b801561032a5780601f106102ff5761010080835404028352916020019161032a565b820191906000526020600020905b81548152906001019060200180831161030d57829003601f168201915b50505050509150915091509091565b6103416103b7565b6001600160a01b0381166103ab5760405162461bcd60e51b815260206004820152602660248201527f4f776e61626c653a206e6577206f776e657220697320746865207a65726f206160448201526564647265737360d01b60648201526084015b60405180910390fd5b6103b481610411565b50565b6000546001600160a01b0316331461029a5760405162461bcd60e51b815260206004820181905260248201527f4f776e61626c653a2063616c6c6572206973206e6f7420746865206f776e657260448201526064016103a2565b600080546001600160a01b038381166001600160a01b0319831681178455604051919092169283917f8be0079c531659141344cd1fd0a4f28419497f9722a3daafe3b4186f6b6457e09190a35050565b634e487b7160e01b600052604160045260246000fd5b60006020828403121561048957600080fd5b813567ffffffffffffffff808211156104a157600080fd5b818401915084601f8301126104b557600080fd5b8135818111156104c7576104c7610461565b604051601f8201601f19908116603f011681019083821181831017156104ef576104ef610461565b8160405282815287602084870101111561050857600080fd5b826020860160208301376000928101602001929092525095945050505050565b6000815180845260005b8181101561054e57602081850181015186830182015201610532565b506000602082860101526020601f19601f83011685010191505092915050565b6020815260006105816020830184610528565b9392505050565b60006020828403121561059a57600080fd5b5035919050565b6040815260006105b46040830185610528565b90508260208301529392505050565b6000602082840312156105d557600080fd5b81356001600160a01b038116811461058157600080fd5b600181811c9082168061060057607f821691505b60208210810361062057634e487b7160e01b600052602260045260246000fd5b50919050565b601f82111561067057600081815260208120601f850160051c8101602086101561064d5750805b601f850160051c820191505b8181101561066c57828155600101610659565b5050505b505050565b815167ffffffffffffffff81111561068f5761068f610461565b6106a38161069d84546105ec565b84610626565b602080601f8311600181146106d857600084156106c05750858301515b600019600386901b1c1916600185901b17855561066c565b600085815260208120601f198616915b82811015610707578886015182559484019460019091019084016106e8565b50858210156107255787850151600019600388901b60f8161c191681555b5050505050600190811b0190555056fea2646970667358221220d136e274798efb97d11f7f9f68ae6b44ad1a7f700650a838e4ed781e2198006064736f6c63430008120033",
    "linkReferences": {}
  },
  "methodIdentifiers": {
    "getSecretNumber()": "84c1d639",
    "getSecretNumberAndPhrase()": "ec9d1fce",
    "getSecretPhrase()": "5df6697a",
    "owner()": "8da5cb5b",
    "renounceOwnership()": "715018a6",
    "secretNumber()": "c36604ed",
    "secretPhrase()": "3356a758",
    "transferOwnership(address)": "f2fde38b",
    "updateSecretNumber(uint256)": "378963ac",
    "updateSecretPhrase(string)": "16d1a438"
  },
  "id": 2
}