{
  "abi": [
    {
      "inputs": [],
      "name": "getNumberAndLetter",
      "outputs": [
        {
          "internalType": "string",
          "name": "",
          "type": "string"
        },
        {
          "internalType": "uint256",
          "name": "",
          "type": "uint256"
        }
      ],
      "stateMutability": "view",
      "type": "function"
    },
    {
      "inputs": [],
      "name": "getOwensNumber",
      "outputs": [
        {
          "internalType": "uint256",
          "name": "",
          "type": "uint256"
        }
      ],
      "stateMutability": "view",
      "type": "function"
    },
    {
      "inputs": [],
      "name": "incrementLeNumbers",
      "outputs": [],
      "stateMutability": "nonpayable",
      "type": "function"
    },
    {
      "inputs": [],
      "name": "letter",
      "outputs": [
        {
          "internalType": "string",
          "name": "",
          "type": "string"
        }
      ],
      "stateMutability": "view",
      "type": "function"
    },
    {
      "inputs": [],
      "name": "number",
      "outputs": [
        {
          "internalType": "uint256",
          "name": "",
          "type": "uint256"
        }
      ],
      "stateMutability": "view",
      "type": "function"
    },
    {
      "inputs": [],
      "name": "number2",
      "outputs": [
        {
          "internalType": "uint256",
          "name": "",
          "type": "uint256"
        }
      ],
      "stateMutability": "view",
      "type": "function"
    },
    {
      "inputs": [],
      "name": "number3",
      "outputs": [
        {
          "internalType": "uint256",
          "name": "",
          "type": "uint256"
        }
      ],
      "stateMutability": "view",
      "type": "function"
    },
    {
      "inputs": [
        {
          "internalType": "uint256",
          "name": "newNumber",
          "type": "uint256"
        },
        {
          "internalType": "string",
          "name": "newString",
          "type": "string"
        }
      ],
      "name": "setNumberAndLetter",
      "outputs": [],
      "stateMutability": "nonpayable",
      "type": "function"
    },
    {
      "inputs": [
        {
          "internalType": "uint256",
          "name": "newNumber",
          "type": "uint256"
        }
      ],
      "name": "setOwensNumber",
      "outputs": [],
      "stateMutability": "nonpayable",
      "type": "function"
    }
  ],
  "bytecode": {
    "object": "0x605460005560496001908155601960025560c06040526080908152604160f81b60a05260039061002f90826100e1565b5034801561003c57600080fd5b506101a0565b634e487b7160e01b600052604160045260246000fd5b600181811c9082168061006c57607f821691505b60208210810361008c57634e487b7160e01b600052602260045260246000fd5b50919050565b601f8211156100dc57600081815260208120601f850160051c810160208610156100b95750805b601f850160051c820191505b818110156100d8578281556001016100c5565b5050505b505050565b81516001600160401b038111156100fa576100fa610042565b61010e816101088454610058565b84610092565b602080601f831160018114610143576000841561012b5750858301515b600019600386901b1c1916600185901b1785556100d8565b600085815260208120601f198616915b8281101561017257888601518255948401946001909101908401610153565b50858210156101905787850151600019600388901b60f8161c191681555b5050505050600190811b01905550565b6105da806101af6000396000f3fe608060405234801561001057600080fd5b50600436106100935760003560e01c80638381f58a116100665780638381f58a146100ec57806390c52443146100f5578063d6980dfd146100fe578063ea7a740214610107578063f0de737b1461010f57600080fd5b806329c00aa014610098578063360c4be1146100af57806368af37df146100c45780637165c4ad146100d9575b600080fd5b6000545b6040519081526020015b60405180910390f35b6100c26100bd3660046102a8565b610125565b005b6100cc61013e565b6040516100a69190610307565b6100c26100e7366004610337565b6101cc565b61009c60005481565b61009c60015481565b61009c60025481565b6100c26101e2565b61011761020b565b6040516100a69291906103f2565b600081905560025461013890829061042a565b60015550565b6003805461014b90610443565b80601f016020809104026020016040519081016040528092919081815260200182805461017790610443565b80156101c45780601f10610199576101008083540402835291602001916101c4565b820191906000526020600020905b8154815290600101906020018083116101a757829003601f168201915b505050505081565b600082905560036101dd82826104cb565b505050565b6000805490806101f18361058b565b9190505550600154600254610206919061042a565b600155565b60606000600360005481805461022090610443565b80601f016020809104026020016040519081016040528092919081815260200182805461024c90610443565b80156102995780601f1061026e57610100808354040283529160200191610299565b820191906000526020600020905b81548152906001019060200180831161027c57829003601f168201915b50505050509150915091509091565b6000602082840312156102ba57600080fd5b5035919050565b6000815180845260005b818110156102e7576020818501810151868301820152016102cb565b506000602082860101526020601f19601f83011685010191505092915050565b60208152600061031a60208301846102c1565b9392505050565b634e487b7160e01b600052604160045260246000fd5b6000806040838503121561034a57600080fd5b82359150602083013567ffffffffffffffff8082111561036957600080fd5b818501915085601f83011261037d57600080fd5b81358181111561038f5761038f610321565b604051601f8201601f19908116603f011681019083821181831017156103b7576103b7610321565b816040528281528860208487010111156103d057600080fd5b8260208601602083013760006020848301015280955050505050509250929050565b60408152600061040560408301856102c1565b90508260208301529392505050565b634e487b7160e01b600052601160045260246000fd5b8082018082111561043d5761043d610414565b92915050565b600181811c9082168061045757607f821691505b60208210810361047757634e487b7160e01b600052602260045260246000fd5b50919050565b601f8211156101dd57600081815260208120601f850160051c810160208610156104a45750805b601f850160051c820191505b818110156104c3578281556001016104b0565b505050505050565b815167ffffffffffffffff8111156104e5576104e5610321565b6104f9816104f38454610443565b8461047d565b602080601f83116001811461052e57600084156105165750858301515b600019600386901b1c1916600185901b1785556104c3565b600085815260208120601f198616915b8281101561055d5788860151825594840194600190910190840161053e565b508582101561057b5787850151600019600388901b60f8161c191681555b5050505050600190811b01905550565b60006001820161059d5761059d610414565b506001019056fea2646970667358221220d828fd6f31aa709b002de9c3296ec0705f6672613af6a1f8519770e9a888a21764736f6c63430008110033",
    "linkReferences": {}
  },
  "methodIdentifiers": {
    "getNumberAndLetter()": "f0de737b",
    "getOwensNumber()": "29c00aa0",
    "incrementLeNumbers()": "ea7a7402",
    "letter()": "68af37df",
    "number()": "8381f58a",
    "number2()": "90c52443",
    "number3()": "d6980dfd",
    "setNumberAndLetter(uint256,string)": "7165c4ad",
    "setOwensNumber(uint256)": "360c4be1"
  },
  "id": 17
}