{
  "abi": [
    {
      "inputs": [],
      "name": "increment",
      "outputs": [],
      "stateMutability": "nonpayable",
      "type": "function"
    },
    {
      "inputs": [],
      "name": "number",
      "outputs": [
        {
          "internalType": "uint256",
          "name": "",
          "type": "uint256"
        }
      ],
      "stateMutability": "view",
      "type": "function"
    },
    {
      "inputs": [],
      "name": "number2",
      "outputs": [
        {
          "internalType": "uint256",
          "name": "",
          "type": "uint256"
        }
      ],
      "stateMutability": "view",
      "type": "function"
    },
    {
      "inputs": [],
      "name": "number3",
      "outputs": [
        {
          "internalType": "uint256",
          "name": "",
          "type": "uint256"
        }
      ],
      "stateMutability": "view",
      "type": "function"
    },
    {
      "inputs": [
        {
          "internalType": "uint256",
          "name": "newNumber",
          "type": "uint256"
        }
      ],
      "name": "setNumber",
      "outputs": [],
      "stateMutability": "nonpayable",
      "type": "function"
    }
  ],
  "bytecode": {
    "object": "0x608060405260196000556019600155601960025534801561001f57600080fd5b5061017f8061002f6000396000f3fe608060405234801561001057600080fd5b50600436106100575760003560e01c80633fb5c1cb1461005c5780638381f58a1461007157806390c524431461008c578063d09de08a14610095578063d6980dfd1461009d575b600080fd5b61006f61006a3660046100e8565b6100a6565b005b61007a60005481565b60405190815260200160405180910390f35b61007a60015481565b61006f6100bf565b61007a60025481565b60008190556002546100b9908290610117565b60015550565b6000805490806100ce83610130565b91905055506000546002546100e39190610117565b600155565b6000602082840312156100fa57600080fd5b5035919050565b634e487b7160e01b600052601160045260246000fd5b8082018082111561012a5761012a610101565b92915050565b60006001820161014257610142610101565b506001019056fea2646970667358221220c2e6a1e5c1693c1d600b64990163da47ba5a536dc9b731b309c4108f85bc444c64736f6c63430008110033",
    "linkReferences": {}
  },
  "methodIdentifiers": {
    "increment()": "d09de08a",
    "number()": "8381f58a",
    "number2()": "90c52443",
    "number3()": "d6980dfd",
    "setNumber(uint256)": "3fb5c1cb"
  },
  "id": 17
}