{
  "abi": [
    {
      "inputs": [],
      "name": "getLeNumber",
      "outputs": [
        {
          "internalType": "uint256",
          "name": "",
          "type": "uint256"
        }
      ],
      "stateMutability": "view",
      "type": "function"
    },
    {
      "inputs": [],
      "name": "incrementLeNumbers",
      "outputs": [],
      "stateMutability": "nonpayable",
      "type": "function"
    },
    {
      "inputs": [],
      "name": "number",
      "outputs": [
        {
          "internalType": "uint256",
          "name": "",
          "type": "uint256"
        }
      ],
      "stateMutability": "view",
      "type": "function"
    },
    {
      "inputs": [],
      "name": "number2",
      "outputs": [
        {
          "internalType": "uint256",
          "name": "",
          "type": "uint256"
        }
      ],
      "stateMutability": "view",
      "type": "function"
    },
    {
      "inputs": [],
      "name": "number3",
      "outputs": [
        {
          "internalType": "uint256",
          "name": "",
          "type": "uint256"
        }
      ],
      "stateMutability": "view",
      "type": "function"
    },
    {
      "inputs": [
        {
          "internalType": "uint256",
          "name": "newNumber",
          "type": "uint256"
        }
      ],
      "name": "setLeNumber",
      "outputs": [],
      "stateMutability": "nonpayable",
      "type": "function"
    }
  ],
  "bytecode": {
    "object": "0x6080604052610457600055602b600155601960025534801561002057600080fd5b5061018e806100306000396000f3fe608060405234801561001057600080fd5b50600436106100625760003560e01c806371c19e2414610067578063720a7ffa1461007d5780638381f58a1461009257806390c524431461009b578063d6980dfd146100a4578063ea7a7402146100ad575b600080fd5b6000545b60405190815260200160405180910390f35b61009061008b3660046100f7565b6100b5565b005b61006b60005481565b61006b60015481565b61006b60025481565b6100906100ce565b60008190556002546100c8908290610126565b60015550565b6000805490806100dd8361013f565b91905055506001546002546100f29190610126565b600155565b60006020828403121561010957600080fd5b5035919050565b634e487b7160e01b600052601160045260246000fd5b8082018082111561013957610139610110565b92915050565b60006001820161015157610151610110565b506001019056fea26469706673582212204911f7284a6164ba5c533e649ffab2811305e2b7e893dbced0295c7c806cb8e064736f6c63430008110033",
    "linkReferences": {}
  },
  "methodIdentifiers": {
    "getLeNumber()": "71c19e24",
    "incrementLeNumbers()": "ea7a7402",
    "number()": "8381f58a",
    "number2()": "90c52443",
    "number3()": "d6980dfd",
    "setLeNumber(uint256)": "720a7ffa"
  },
  "id": 17
}