{
  "abi": [
    {
      "inputs": [],
      "name": "getNumber",
      "outputs": [
        {
          "internalType": "uint256",
          "name": "",
          "type": "uint256"
        }
      ],
      "stateMutability": "view",
      "type": "function"
    },
    {
      "inputs": [],
      "name": "increment",
      "outputs": [],
      "stateMutability": "nonpayable",
      "type": "function"
    },
    {
      "inputs": [],
      "name": "number",
      "outputs": [
        {
          "internalType": "uint256",
          "name": "",
          "type": "uint256"
        }
      ],
      "stateMutability": "view",
      "type": "function"
    },
    {
      "inputs": [],
      "name": "number2",
      "outputs": [
        {
          "internalType": "uint256",
          "name": "",
          "type": "uint256"
        }
      ],
      "stateMutability": "view",
      "type": "function"
    },
    {
      "inputs": [],
      "name": "number3",
      "outputs": [
        {
          "internalType": "uint256",
          "name": "",
          "type": "uint256"
        }
      ],
      "stateMutability": "view",
      "type": "function"
    },
    {
      "inputs": [
        {
          "internalType": "uint256",
          "name": "newNumber",
          "type": "uint256"
        }
      ],
      "name": "setNumber",
      "outputs": [],
      "stateMutability": "nonpayable",
      "type": "function"
    }
  ],
  "bytecode": {
    "object": "0x608060405260266000556019600155601960025534801561001f57600080fd5b506101928061002f6000396000f3fe608060405234801561001057600080fd5b50600436106100625760003560e01c80633fb5c1cb146100675780638381f58a1461007c57806390c5244314610097578063d09de08a146100a0578063d6980dfd146100a8578063f2c9ecd8146100b1575b600080fd5b61007a6100753660046100fb565b6100b9565b005b61008560005481565b60405190815260200160405180910390f35b61008560015481565b61007a6100d2565b61008560025481565b600054610085565b60008190556002546100cc90829061012a565b60015550565b6000805490806100e183610143565b91905055506001546002546100f6919061012a565b600155565b60006020828403121561010d57600080fd5b5035919050565b634e487b7160e01b600052601160045260246000fd5b8082018082111561013d5761013d610114565b92915050565b60006001820161015557610155610114565b506001019056fea26469706673582212204267040d12e412625df745c9e5588338243e332473be0b8c726821f1352e5faa64736f6c63430008110033",
    "linkReferences": {}
  },
  "methodIdentifiers": {
    "getNumber()": "f2c9ecd8",
    "increment()": "d09de08a",
    "number()": "8381f58a",
    "number2()": "90c52443",
    "number3()": "d6980dfd",
    "setNumber(uint256)": "3fb5c1cb"
  },
  "id": 17
}