{
  "abi": [
    {
      "inputs": [],
      "name": "getCurrentNumber",
      "outputs": [
        {
          "internalType": "uint256",
          "name": "",
          "type": "uint256"
        }
      ],
      "stateMutability": "view",
      "type": "function"
    },
    {
      "inputs": [],
      "name": "incrementNumbers",
      "outputs": [],
      "stateMutability": "nonpayable",
      "type": "function"
    },
    {
      "inputs": [],
      "name": "number",
      "outputs": [
        {
          "internalType": "uint256",
          "name": "",
          "type": "uint256"
        }
      ],
      "stateMutability": "view",
      "type": "function"
    },
    {
      "inputs": [],
      "name": "number2",
      "outputs": [
        {
          "internalType": "uint256",
          "name": "",
          "type": "uint256"
        }
      ],
      "stateMutability": "view",
      "type": "function"
    },
    {
      "inputs": [],
      "name": "number3",
      "outputs": [
        {
          "internalType": "uint256",
          "name": "",
          "type": "uint256"
        }
      ],
      "stateMutability": "view",
      "type": "function"
    },
    {
      "inputs": [
        {
          "internalType": "uint256",
          "name": "newNumber",
          "type": "uint256"
        }
      ],
      "name": "setNewNumber",
      "outputs": [],
      "stateMutability": "nonpayable",
      "type": "function"
    }
  ],
  "bytecode": {
    "object": "0x60806040526045600055602b600155601960025534801561001f57600080fd5b5061018e8061002f6000396000f3fe608060405234801561001057600080fd5b50600436106100625760003560e01c806358faa02f146100675780635c2fbc3e1461007157806360515650146100875780638381f58a1461009a57806390c52443146100a3578063d6980dfd146100ac575b600080fd5b61006f6100b5565b005b6000545b60405190815260200160405180910390f35b61006f6100953660046100f7565b6100de565b61007560005481565b61007560015481565b61007560025481565b6000805490806100c483610126565b91905055506001546002546100d9919061013f565b600155565b60008190556002546100f190829061013f565b60015550565b60006020828403121561010957600080fd5b5035919050565b634e487b7160e01b600052601160045260246000fd5b60006001820161013857610138610110565b5060010190565b8082018082111561015257610152610110565b9291505056fea264697066735822122059a3ba97691c6ba1f806216587987adbff26cb8b3ef70b063d9dc68b7133780a64736f6c63430008110033",
    "linkReferences": {}
  },
  "methodIdentifiers": {
    "getCurrentNumber()": "5c2fbc3e",
    "incrementNumbers()": "58faa02f",
    "number()": "8381f58a",
    "number2()": "90c52443",
    "number3()": "d6980dfd",
    "setNewNumber(uint256)": "60515650"
  },
  "id": 17
}