{
  "abi": [
    {
      "inputs": [],
      "name": "getLeNumber",
      "outputs": [
        {
          "internalType": "uint256",
          "name": "_number",
          "type": "uint256"
        }
      ],
      "stateMutability": "view",
      "type": "function"
    },
    {
      "inputs": [],
      "name": "getNumberAndLetter",
      "outputs": [
        {
          "internalType": "string",
          "name": "_letter",
          "type": "string"
        },
        {
          "internalType": "uint256",
          "name": "_number",
          "type": "uint256"
        }
      ],
      "stateMutability": "view",
      "type": "function"
    },
    {
      "inputs": [],
      "name": "incrementLeNumbers",
      "outputs": [],
      "stateMutability": "nonpayable",
      "type": "function"
    },
    {
      "inputs": [
        {
          "internalType": "uint256",
          "name": "newNumber",
          "type": "uint256"
        }
      ],
      "name": "setLeNumber",
      "outputs": [],
      "stateMutability": "nonpayable",
      "type": "function"
    },
    {
      "inputs": [
        {
          "internalType": "uint256",
          "name": "newNumber",
          "type": "uint256"
        },
        {
          "internalType": "string",
          "name": "newString",
          "type": "string"
        }
      ],
      "name": "setNumberAndLetter",
      "outputs": [],
      "stateMutability": "nonpayable",
      "type": "function"
    }
  ],
  "bytecode": {
    "object": "0x605460005560c060405260016080818152604160f81b60a05261002290826100d4565b5034801561002f57600080fd5b50610193565b634e487b7160e01b600052604160045260246000fd5b600181811c9082168061005f57607f821691505b60208210810361007f57634e487b7160e01b600052602260045260246000fd5b50919050565b601f8211156100cf57600081815260208120601f850160051c810160208610156100ac5750805b601f850160051c820191505b818110156100cb578281556001016100b8565b5050505b505050565b81516001600160401b038111156100ed576100ed610035565b610101816100fb845461004b565b84610085565b602080601f831160018114610136576000841561011e5750858301515b600019600386901b1c1916600185901b1785556100cb565b600085815260208120601f198616915b8281101561016557888601518255948401946001909101908401610146565b50858210156101835787850151600019600388901b60f8161c191681555b5050505050600190811b01905550565b610465806101a26000396000f3fe608060405234801561001057600080fd5b50600436106100575760003560e01c80637165c4ad1461005c57806371c19e2414610071578063720a7ffa14610087578063ea7a74021461009a578063f0de737b146100a2575b600080fd5b61006f61006a366004610197565b6100b8565b005b6000546040519081526020015b60405180910390f35b61006f610095366004610252565b600055565b61006f6100ce565b6100aa6100e4565b60405161007e92919061026b565b600082905560016100c98282610348565b505050565b6000805490806100dd83610408565b9190505550565b6060600060016000548180546100f9906102c0565b80601f0160208091040260200160405190810160405280929190818152602001828054610125906102c0565b80156101725780601f1061014757610100808354040283529160200191610172565b820191906000526020600020905b81548152906001019060200180831161015557829003601f168201915b50505050509150915091509091565b634e487b7160e01b600052604160045260246000fd5b600080604083850312156101aa57600080fd5b82359150602083013567ffffffffffffffff808211156101c957600080fd5b818501915085601f8301126101dd57600080fd5b8135818111156101ef576101ef610181565b604051601f8201601f19908116603f0116810190838211818310171561021757610217610181565b8160405282815288602084870101111561023057600080fd5b8260208601602083013760006020848301015280955050505050509250929050565b60006020828403121561026457600080fd5b5035919050565b604081526000835180604084015260005b81811015610299576020818701810151606086840101520161027c565b506000606082850101526060601f19601f8301168401019150508260208301529392505050565b600181811c908216806102d457607f821691505b6020821081036102f457634e487b7160e01b600052602260045260246000fd5b50919050565b601f8211156100c957600081815260208120601f850160051c810160208610156103215750805b601f850160051c820191505b818110156103405782815560010161032d565b505050505050565b815167ffffffffffffffff81111561036257610362610181565b6103768161037084546102c0565b846102fa565b602080601f8311600181146103ab57600084156103935750858301515b600019600386901b1c1916600185901b178555610340565b600085815260208120601f198616915b828110156103da578886015182559484019460019091019084016103bb565b50858210156103f85787850151600019600388901b60f8161c191681555b5050505050600190811b01905550565b60006001820161042857634e487b7160e01b600052601160045260246000fd5b506001019056fea26469706673582212206ece152204067959d1970d6285275fb64da2f95ae118375cccafc3abe2dc891c64736f6c63430008110033",
    "linkReferences": {}
  },
  "methodIdentifiers": {
    "getLeNumber()": "71c19e24",
    "getNumberAndLetter()": "f0de737b",
    "incrementLeNumbers()": "ea7a7402",
    "setLeNumber(uint256)": "720a7ffa",
    "setNumberAndLetter(uint256,string)": "7165c4ad"
  },
  "id": 17
}