{
  "abi": [
    {
      "inputs": [],
      "name": "getTheNumber",
      "outputs": [
        {
          "internalType": "uint256",
          "name": "",
          "type": "uint256"
        }
      ],
      "stateMutability": "view",
      "type": "function"
    },
    {
      "inputs": [],
      "name": "incrementTheNumbers",
      "outputs": [],
      "stateMutability": "nonpayable",
      "type": "function"
    },
    {
      "inputs": [],
      "name": "number",
      "outputs": [
        {
          "internalType": "uint256",
          "name": "",
          "type": "uint256"
        }
      ],
      "stateMutability": "view",
      "type": "function"
    },
    {
      "inputs": [],
      "name": "number2",
      "outputs": [
        {
          "internalType": "uint256",
          "name": "",
          "type": "uint256"
        }
      ],
      "stateMutability": "view",
      "type": "function"
    },
    {
      "inputs": [],
      "name": "number3",
      "outputs": [
        {
          "internalType": "uint256",
          "name": "",
          "type": "uint256"
        }
      ],
      "stateMutability": "view",
      "type": "function"
    },
    {
      "inputs": [
        {
          "internalType": "uint256",
          "name": "newNumber",
          "type": "uint256"
        }
      ],
      "name": "setTheNumber",
      "outputs": [],
      "stateMutability": "nonpayable",
      "type": "function"
    }
  ],
  "bytecode": {
    "object": "0x60806040526101a4600055602b600155601960025534801561002057600080fd5b50610192806100306000396000f3fe608060405234801561001057600080fd5b50600436106100625760003560e01c80630105914c146100675780636a6fcd531461007c5780638381f58a1461008457806390c524431461009f578063b4a43749146100a8578063d6980dfd146100b0575b600080fd5b61007a6100753660046100fb565b6100b9565b005b61007a6100d2565b61008d60005481565b60405190815260200160405180910390f35b61008d60015481565b60005461008d565b61008d60025481565b60008190556002546100cc90829061012a565b60015550565b6000805490806100e183610143565b91905055506001546002546100f6919061012a565b600155565b60006020828403121561010d57600080fd5b5035919050565b634e487b7160e01b600052601160045260246000fd5b8082018082111561013d5761013d610114565b92915050565b60006001820161015557610155610114565b506001019056fea2646970667358221220af6ba31db6312197f2cd3a1d0f72c32e89427b1ad82733912a95a95e8eb546fe64736f6c63430008110033",
    "linkReferences": {}
  },
  "methodIdentifiers": {
    "getTheNumber()": "b4a43749",
    "incrementTheNumbers()": "6a6fcd53",
    "number()": "8381f58a",
    "number2()": "90c52443",
    "number3()": "d6980dfd",
    "setTheNumber(uint256)": "0105914c"
  },
  "id": 17
}