{
  "abi": [
    {
      "inputs": [],
      "name": "getLeNumberDevBranch",
      "outputs": [
        {
          "internalType": "uint256",
          "name": "_number",
          "type": "uint256"
        }
      ],
      "stateMutability": "view",
      "type": "function"
    },
    {
      "inputs": [],
      "name": "getNumberAndLetterDevBranch",
      "outputs": [
        {
          "internalType": "string",
          "name": "_letter",
          "type": "string"
        },
        {
          "internalType": "uint256",
          "name": "_number",
          "type": "uint256"
        }
      ],
      "stateMutability": "view",
      "type": "function"
    },
    {
      "inputs": [],
      "name": "incrementLeNumbersDevBranch",
      "outputs": [],
      "stateMutability": "nonpayable",
      "type": "function"
    },
    {
      "inputs": [
        {
          "internalType": "uint256",
          "name": "newNumber",
          "type": "uint256"
        },
        {
          "internalType": "string",
          "name": "newString",
          "type": "string"
        }
      ],
      "name": "setNumberAndLetterDevBranch",
      "outputs": [],
      "stateMutability": "nonpayable",
      "type": "function"
    },
    {
      "inputs": [
        {
          "internalType": "uint256",
          "name": "newNumber",
          "type": "uint256"
        }
      ],
      "name": "setTheNumberDevBranch",
      "outputs": [],
      "stateMutability": "nonpayable",
      "type": "function"
    }
  ],
  "bytecode": {
    "object": "0x611b3960005560c0604052600760809081526630b9b23339b23360c91b60a05260019061002c90826100de565b5034801561003957600080fd5b5061019d565b634e487b7160e01b600052604160045260246000fd5b600181811c9082168061006957607f821691505b60208210810361008957634e487b7160e01b600052602260045260246000fd5b50919050565b601f8211156100d957600081815260208120601f850160051c810160208610156100b65750805b601f850160051c820191505b818110156100d5578281556001016100c2565b5050505b505050565b81516001600160401b038111156100f7576100f761003f565b61010b816101058454610055565b8461008f565b602080601f83116001811461014057600084156101285750858301515b600019600386901b1c1916600185901b1785556100d5565b600085815260208120601f198616915b8281101561016f57888601518255948401946001909101908401610150565b508582101561018d5787850151600019600388901b60f8161c191681555b5050505050600190811b01905550565b610465806101ac6000396000f3fe608060405234801561001057600080fd5b50600436106100575760003560e01c80632f4f1f521461005c578063a00e8e0014610071578063b14302a914610084578063b81309541461009a578063ba6d75cd146100a2575b600080fd5b61006f61006a366004610181565b600055565b005b61006f61007f3660046101b0565b6100b8565b6000546040519081526020015b60405180910390f35b61006f6100ce565b6100aa6100e4565b60405161009192919061026b565b600082905560016100c98282610348565b505050565b6000805490806100dd83610408565b9190505550565b6060600060016000548180546100f9906102c0565b80601f0160208091040260200160405190810160405280929190818152602001828054610125906102c0565b80156101725780601f1061014757610100808354040283529160200191610172565b820191906000526020600020905b81548152906001019060200180831161015557829003601f168201915b50505050509150915091509091565b60006020828403121561019357600080fd5b5035919050565b634e487b7160e01b600052604160045260246000fd5b600080604083850312156101c357600080fd5b82359150602083013567ffffffffffffffff808211156101e257600080fd5b818501915085601f8301126101f657600080fd5b8135818111156102085761020861019a565b604051601f8201601f19908116603f011681019083821181831017156102305761023061019a565b8160405282815288602084870101111561024957600080fd5b8260208601602083013760006020848301015280955050505050509250929050565b604081526000835180604084015260005b81811015610299576020818701810151606086840101520161027c565b506000606082850101526060601f19601f8301168401019150508260208301529392505050565b600181811c908216806102d457607f821691505b6020821081036102f457634e487b7160e01b600052602260045260246000fd5b50919050565b601f8211156100c957600081815260208120601f850160051c810160208610156103215750805b601f850160051c820191505b818110156103405782815560010161032d565b505050505050565b815167ffffffffffffffff8111156103625761036261019a565b6103768161037084546102c0565b846102fa565b602080601f8311600181146103ab57600084156103935750858301515b600019600386901b1c1916600185901b178555610340565b600085815260208120601f198616915b828110156103da578886015182559484019460019091019084016103bb565b50858210156103f85787850151600019600388901b60f8161c191681555b5050505050600190811b01905550565b60006001820161042857634e487b7160e01b600052601160045260246000fd5b506001019056fea2646970667358221220dadd4cde9865da943c08bbf70c1c6c075cf4d05b19aa8ed60a7483594c80df1064736f6c63430008140033",
    "linkReferences": {}
  },
  "methodIdentifiers": {
    "getLeNumberDevBranch()": "b14302a9",
    "getNumberAndLetterDevBranch()": "ba6d75cd",
    "incrementLeNumbersDevBranch()": "b8130954",
    "setNumberAndLetterDevBranch(uint256,string)": "a00e8e00",
    "setTheNumberDevBranch(uint256)": "2f4f1f52"
  },
  "id": 21
}